:4000000000400020590B0000FD010000FF01000000000000000000000000000000000000000000000000000000000000FD0100000000000000000000FD010000FD01000004
:40004000FD010000FD010000FD010000FD010000FD010000FD010000FD010000FD010000FD010000FD010000FD010000FD010000FD010000FD010000FD010000FD010000A0
:40008000FD010000FD010000FD010000FD010000FD010000FD010000000000000000000000000000000000000000000000000000000000000000000000000000000000004C
:4000C00000000000000000000000000000000000000000000000000000000000000000009400001069770000C11180310000000000000000000000000000000000000000F9
:4001000010B5064C2378002B07D1054B002B02D0044800E000BF0123237010BD000500200000000090220000044B10B5002B03D00349044800E000BF10BDC046000000005B
:400140000405002090220000402292029A1A92467047C046174B002B00D1134B9D46FFF7F3FF00218B460F461348144A121A01F0F2FF0E4B002B00D098470D4B002B00D04A
:4001800098470020002104000D000D48002802D00C4800E000BF01F0B1FF2000290000F047FD01F095FFC0460000080000000000190C00000040002000050020DC14002061
:4001C0000000000000000000BFF34F8F034B044ADA60BFF34F8FC046FDE7C04600ED00E00400FA05034B1A7801231A4201D1024A137070470907002058050020FEE7FEE71A
:4002000070B51D4B1D4CE15800292AD00C3BE1504B0521D5E26D1A4DE36D52042B600023520F93421EDB07240F222B68580A20401A40012A02D11B0B23420DD0114A124B4C
:400240001478002C02D01C78A04205D001241470402218700D4B1A608B0502D501220B4B1A6070BD1800183080002658013398002E50DBB2D5E7C0460C05000000000A406B
:400280004C0A0020080700206C0A0020440A002030B5002915D001230F250B4C41185B420278013053401A092B409B001B595A4013092A409200125953408842F0D1D843CC
:4002C00030BD01235B42FAE73C22000070B5437902791B0281791A43C379090411431B0604000622194350D042780378857812021A432D042A438025C378AD021B06134394
:4003000058180622A84240D21800FFF7C1FF220023005932117858331B780902194323005A331A7801331B78120411431B0606220B43834229D1617B207BA37B0902E47BB5
:4003400008431B04034324061C43AC421DD2637820780F491B0203438B4216D12000E179A279090211430C390C30FFF791FF617A237AA27A09021943E37A120411431B06A7
:4003800000220B43834200D00632100070BDC04646490000030010B50720012B09D10748FFF794FF064B04221978002802D19143197010BD0A4306201A70FAE780FF0100D6
:4003C000380A00200B4B00209B681A0F11070A2A0AD0F0221206914207D1074A9B18132B05D8064A9B00985870470548FCE70548FAE7C04600001040FFFFFF0F84210000E8
:4004000023005000FF0052000020074B1A6B824208DA064A98581C238000034004485843044BC0187047C04600000340080F000040420F0000366E01F8B5012403222600A1
:400440000B4B9D6A9F6AAD09996ABF0815401740AE40BC400023114202D1FFF7D5FF03006008C018F84076088019E840F8BDC0460000034010B5FFF7DFFF041E12D0013C5B
:400480000949200001F098FDFA21084B013018708900200001F090FD054B01301860054BC003186010BDC04640420F0084040020800400207C0400201C4BF7B58200D6585F
:4004C000182343431A4AD318C22292009B8AB4589BB2E405E40D221C082C00D9082218274743134D1C00AC463D0092B20A706544991889B20195A5B2A9420CD800248B4235
:4005000000D8141C18225043094A1B1915189BB20120AB82FEBDD025AD007559AC466746019DAD682F550134E5E7C0462C220000D8090020764B8200F0B5D458002385B0D4
:4005400002AAD371734A0500A6580222FF32164200D083E00127F3063CD5182343436E4AD31801931B79042B10D002ABD91DFFF7A3FF0521019B38009A8A197192B21B6973
:400580009847FC23012207001B01E25018236B43614AD31802221A7100229A82812380229B00E15852020A43E250E2585B490A40E25001225A49635893436350F8231021BC
:4005C0001B01E250574AA3588B43A350F42330221B01E250730600D473E018226A434E4B9B181A79022A40D1626ED20639D504210022197110001B699847002835D0F822B5
:4006000001231201A350464AA350F423302245491B01E2506058203A02436250424A515D012200294AD1E266E65001263F4BE75837424CD10120F8231B01E7503C4BE658C6
:40064000F30704D502AB2800D91DFFF735FFFC231B01E65000280DD005B0F0BD1E001F00B8E705221A71002FCFD10223E366F4231B01E6501820236868435B005B082360F7
:400680000223254D264A2D182B710023F821AB82A3500122102552422248090162502158A9432150F4210901625080316250E366802322681B0613432360CDE71D494A55B1
:4006C000B2E7F4231B01E650002FAED1D2E718226A43114B04219B1800221B69100098470028A7D10E4AA358B343A350F8231B01E650812380229B00E15852020A43E250AB
:40070000E25806490A40E2500223E36693E7C0462C2200004C0F0000D8090020FFFFFEFF880F0000480F00008E0A00208C0F0000CC0F0000920A002010B50320FFF7FAFE73
:4007400010BD0000084B03219A6A100008400A4206D01A6B002A04DA00209A6A8A439A6270470248FCE7C0460000034003004A000321064B1A6B8A43110002220A43102149
:400780001A631A6B0A431A637047C04600001040F0B501240A688440244B002A43D15C644A6803279446072216004743BE409D68B54366463240BA4015433207D20F82402D
:4007C0009D609D698700A5432A430F25AC46BD406646174C9A6122684000AA4315000A7A3240BA402A43226003248440DA680C3EA243CC682640864080241643DE600A69D8
:4008000064041206986822400A4C204002439A604A6980215206890498680A40064901400A439A60F0BD1C64BAE7C0460003044000030240FFFFFFFEFFFFFFFD044B1B6860
:40084000DB0703D5034B10308000C1507047C04600001040000000208023F0B5C9B000909B02984251D2802208A8520001F06AFC274B06AE0693FF23264D7360264BAE60E6
:400880006B60C046FFF79EFD041E3BD101F0D9F9224B234F029302AB01900397AB60214B6B60C046FFF78EFD80221F4B1206041E1A6324D11D4BAB601D4B6B60C046FFF776
:4008C00081FD041E1BD11B4B009AAE6033603368100A00041843184B30606B60C046FFF771FD164A04AB04920597AB60144B04006B60C046FFF766FD002C00D1040001981C
:4009000001F0A3F9200049B0F0BD0E4CFAE7C046B6D700000000104004000080B6E900001C0500201600008000000340B6E8000015000080B6D8000005000080B6EA000023
:40094000170000802100520010B5104A030012780E20002A18D00E4A073812889A4213D80C4A12889A4203D20B4A12889A420BD1802207209200934206D21802FFF76CFFBE
:4009800040B2002800D0052010BDC04609070020880400208A0400208E040020F8B5444D69780C0902D000242000F8BD01284BD1022A20D83F4F404E3C603460012A10D05A
:4009C00002290CD13D4B2A781B889A42EBD23C49083352183A605B1801243360E4E70029E1D10022AA562B78002ADCDB354A9B183B60334BF0E7023A93B200291BD0040093
:400A000002290DD12D4A29782D4812880818521A9A4200DD1A002C4992B201F093FB01242A4B1B78D9B2002BBED190222800520001F091FBB8E7264A264912788854234A83
:400A40001070254A1380EAE70028E9D119490B681C1EE5D0184A040012689342E0D2D21A92B2002ADCD0101C082A00D90820C2B217481A4C00788000045982208000265883
:400A80000820801B8126C0B2B600824208D20120A05190209A188000934205D10B60BEE70422A2510200F4E71E7801332650F3E7100700203808002034080020920400209E
:400AC000C40800203C0800201207002030080020320800208E0A0020D60900202C22000010B5034B1B68584301F0A2F810BDC04680040020F7B5040001200F001D000192F3
:400B0000FFF7EEFF4021114E0F43335D29030F435B021F4300230E49CF609D420ED880230C4A9B02116803200B431360FFF7D8FF0722335D013313403355F7BD01989A0016
:400B400080581A1D920088500133E6E78D0A002000000A40C4000A401923244970B54A6D1A40234B102A1BD000221A60214B8B6372B6C0222049214801F0E4FA0123204A4B
:400B800011680B431360BFF34F8F1E4B1E4883421ED300201D4B1E498B4224D3FFF7DAFA1A68012AE2D100201A681A4A126806CA186081F308889047FEE71C6891006458B0
:400BC0005D6801326C5099688A42F6D30C33DEE70022F8E71D689400605101325C68A242F8D30833D8E70022F8E7C04600000340780400206588EDAC0000000000000020B0
:400C0000000010409C220000A8220000A8220000B022000080FF01007047000010B5034B1B78584301F004F810BDC04684040020F0B589B0FFF79CFD8023F74D1B062B635D
:400C40002B6B002B1FDAFFF7DFFBF44B98421AD000F0F7FF0022F24B0400EA50F148F24BF249C35CDBB26B50F1231B01EA50D3239B00C35CEE4ADBB23220AB5000F0D8FF59
:400C8000200000F0E2FFFFF75DFD0C22E24EB36A9343B362B36AB4329343B362FFF7EAFB3022B36A9343B3628023F26A1B061343F362336B002B2FDAFFF7A6FBDD4B984234
:400CC0002AD000F0BEFF0022D54C0500DA4BD5483251C35CD549DBB27350F1231B01F250D9239B00C35CD24ADBB2B350322000F09FFF31003259072605230F00B243134394
:400D000032200B5100F094FF06233A592800B24313433B5100F099FFFFF714FD0C22BE49C1248B6AC54E93438B628B6AB43293438B62FFF71DFDFFF79DFBC021C04BC14A20
:400D400089001A605858C04A304010435850BF48A40018601868BE48862718601859BF00304002431A51BB4AC2201A601A68BA4A80001A60A0221D58D20035402A43C32579
:400D80001A50B64AAD001A601A68B54A09381A605A59FF38324002435A51B24A9E251A601A688022D2051A601E58AF4AED01164035431D508125AD48AD0018601868AC48A0
:400DC00018605859104008435851AA48043518601868A9481860585910405851A748043518601868A6481860B8205E594001164030435851A348842618601868A248B6005B
:400E00001860BC209D598001154005439D519F4D04361D601D689E4D1D609D59154005439D519C4D1D601D689B4D1D608025DE596D0016403543DD51984D07271D601D68A1
:400E4000974D1D608725AD005E59164030435851944804351860186893481860CC205E59800116403043585190480126186018688F481860892080001D582A4011438D4A20
:400E800019501A60092200201B688B4B8B491A61043A5E629862DA62033A9A6392191A639219DA633C321A643A3A5A643B329F64834DDA64FFF76CFC30008249FFF768FC8F
:400EC0002B591B021B0A2B517F4B1B68334203D038007E49FFF7B2FC80232B60FFF7ACFA7B4F0100380000F0E1FEB722794ED200B7505722784900230A708021774A4900E1
:400F00001180774AD1393370118062B6754C76482370FFF7DBF9002801D0042323700823227872491343724A237013689BB28B4200D029E100231360227801331343237099
:400F40006C4C37782368C1215B005B082360802309221B06C90023606358642093431A00012313436350FFF759FE9622624B52001A60624B624A1A60C022D200A3585B006A
:400F80005B08A3509032A3585B005B08A3501823A1580B435B49A35063585B4A1A4090231B021343594A6350A35859495B0C5B040B43A350002F00D116E2DA213822C90064
:400FC0006358012093431A001023134363505149514A63581A40514B13436350FFF780FDC022D200A1584E4B0B43A35000224D4B1A604D4B4D4A1A6001234D4A11680B43A1
:401000008E2113604B4B4C4AFF311A604B4A13685B0A5B0294E0C0460000034000366E01080F000000F0FF0F650300000C0F0000180F0000006CDC027D030000FF0000FFFD
:40104000000001404000004000BF5D0040FF00804100004041FF00804200004042FF00804300004043FF0080FF00FFFF00FF00800100004001FF00800200004002FF00800B
:401080000300004003FF00800400004004FF00800500004005FF00800600004006FF00800700004007FF00800800004008FF00800900004009FF0080FC0001400022000044
:4010C00000E100E0D421000000001040191C0000DC100020980A0020D40900209204002090040020380A002080FF01004C4200007804002000000A40D0000A40D4000A40F2
:401100000A4041010C210000FF0FFCFF142100005C500100082100001EFF79FF210084000A003E00A8000A40BC000A400B410000C4000A40B4000A400F020000E4000A40D1
:401140000B431360002F0CD18027E14BBF01DF67BFF34F8FBFF36F8F0D20DE49FFF76EFB2F60A022DC4BD200A3500832A1580B43A3507C22D949635893431A004023134301
:401180006350012303932FE0247804232000116818401C4200D0D3E6D14C89B2D14BA1420BD1188019888BB2002912D1012313601923CD4A5365FFF707F8CC49CC4C09890D
:4011C000A142EED0CB488142ECD0FA2189001980E8E70024C84A21001470C84A38000092C02200F0BDFD0394C54B03221E600126C44B00211E70C44BC4481A70C44BC54A7B
:401200001A609022520000F0A6FF9123C24CC34A9B00D75820008022002100F09CFFC04B20221B886780A38023003A331A702423FF33E363BB4B2C341A782670BA4B002A04
:4012400000D01A7000211B78B84A0493B84B81201960C1241A668022A40052028000D9661A501A51B34AF42699500122360152429A51B14E049F9951083E9A51AF4E99519A
:40128000083E9A517A00FE273F043A43C427BF001E68DA510822113FFF32FF3FDA510137FF37DA518022120632431A60A44A0126170048373E704B27BC4694446046493F1A
:4012C00007704C20844694446046077017005C3739808E499027116511007F0054310F80984904989165110049310870FE214A3281201170042280001A501A511A59924945
:401300000A401A511A580A401A5042228949FF325A508A4AFA388D499E50FF38FFF78EFA80231B012B60774B1B78002B09D08021754B874A1B7849049B009A5893680B43B7
:4013400093600023902206AE06937360814B724C1B78227063705B074FD580253100AD00E0237D4A81CB81C21000082200F0EAFE2300203306CE06C380239B0063852585AC
:4013800000F05FFC230080227E331A80FF23184000F05BFC01222F21A3791343A3716F4B2F321A806E4B6F4A059313806E4A13806E4A11806E4F3B78002B46D0534D6D4E26
:4013C0006B781B0932D16C4B28781B880638DBB2062800D926E100F0E5FD17002501410025016100E400ED000F226449CB6F93431A000B231343CB67DFE53C4B1D682900B1
:401400002D0AE031ADB2ABE70122AB7813420DD000F017FC0121404B9A798A439A7100227E331A80FF23184000F00FFC0022364B53491B783A70CA54F15C914205D0F254A9
:40144000504A9B009B580122DA662B4B1B78002B00D1E9E001224C4B1A60A9E6012B00D8E0E0AB780524522B1FD1EA78012A1CD10021254B42481B78C154F05C884204D0AC
:40148000F15440499B005B58DA660520FFF7C6FB72B600223C4B1A60FEF796FEAA783B4B502A75D102244F3A1A7000F0CAFB1A4D00222B007E331C702B007F331A70FF2350
:4014C000184000F0C2FB0122AB791343AB71ADE704E100E001020000030601009407000031420000860400200000034080FF010046490000FFFF000058050020E50100005D
:401500000C07002031080020320800201007002038080020BA0800203C08002000F0FF0F90040020D4090020940400208828004000000840480F0000880F0000C80F000084
:40154000D80900209D090000FFFFFEFF390700007C220000380A00204C08002088040020FF0100008A0400208E0400208C04002030080020920A0020D609002004FF0A40F9
:401580008E0A00202C220000780400200907002001211A7805240A4287D00022033C1A7083E7A878FEF7F6FE0230C4B2002C00D13CE77AE70524032B00D876E7AB78462B32
:4015C00000D072E7EB780220012B07D168792B790002C1491843FFF7B7F9033CEB78002B1BD1BE4B07241B78002B00D15DE7BC4B69792A791B88090211438B4200D354E77E
:4016000080239B00994200D34FE78022B2480902520000F02EFB043C47E7002800D144E7072442E7052440E7039B002B00D1C1E6AC4B1C78AC4B1B5DD9B2002B6BD1AB4B1D
:40164000AB4E1D5D06AF002D27D0AD239B00F65880223700D200A74BA74D1740A000164274D129586200511889005E5801365E502958521892009958A04A91424BD9E4009D
:401680001F511C19676046E0802372585B0013430CE0D150012D3ED001250023C0213B70C9009D42F0D17358954A134073500A20FFF7B4FAAD2301229B00F3589B0A134094
:4016C0003B70387863005B198A4AC1B29B000028DFD0D1580131D150D158884B9942D9D9854BA100CD500023E100535052185360844A04211355844AAD001355834A135535
:4017000001227A4B1A55C023DB00F2588A43F250F2581543F550734B1E78734B9B5DDCB2002B00D046E67A4DB7007B59012B13D100F087FAFF237C51184000F086FA714B4F
:401740009C55714B9C55714B9C5533E62A586400A418A4001951DEE77B59402B00D029E600F06FFAFF237C51184000F06EFA694A13685C04640F00D11CE60F210B40012BFF
:4017800009D18023644A5B05136001230D393000FFF7B0F90EE60F2B00D00BE653797F2B26D91079C006C00E0138032800D901E6594A00F0EDFB020D1319584B1360584BDE
:4017C000536000239360574BD36004230F21DEE7554B1360554B53600223F7E7544B136001235360DB18F1E7524B13600123EDE7D188514B994200D0AAE111799788C90667
:40180000FF054E4DC90E4E4A3F0F0491790128680A434C49013C01400A432A60049AA400501EE4B2122800D992E100F0BBFB13001D00370095009101E200F7001601310154
:4018400049016D0175017C01910191019101910191018B01002C00D0F6E02F236C60AB6003340220404227E0002C00D0ECE0E0210822281D00F0FDF9334B34491B785B076C
:4018800002D4334B1968E031280008220C3000F0F0F900236B61AB610724E2E7042C00D0D2E01C4B1B7A532B00D0CDE0294AF233FF33D358AB6000201F222B789343049ACB
:4018C00013432B70831C03D001340230E4B2686023002A007AE7C046C4080020090700208C040020980A00208C0A0020480A002000000A405C05002054050020C409000045
:40190000FFFEFFFF6C0A00208D0A002008070020440A00204C0A002034050020418000FFB40400920000A0F6428000FF0000B4044380B4044480B404B4040000700A002091
:401940000008B4041FE60000380A0020390A002080FF010000F0FF0F042C75D1844B1B7A522B71D172B6834B834D1A68834E1A60834B84491F688023AA59DB001343824870
:40198000AB514B6E814A0078002F24D10F37BB43034302204B66AB59A343AB51AB590343AB518C239B00E9581143E950E9580143E950E9588143E95090239B00E95864205B
:4019C0000A43EA50FFF72AF98023AA591B021343AB51FEF7F9FB0F270130BB43034302204B66AB598343AB51AB591C43AC518E23D8E7042C28D15E4B654A1B7A502B09D1CA
:401A00000221137803208B43033C002B00D053E7117050E70020107001244DE77B1E0A2B12D80B2F0ED0182C0ED1182078431838584F4F4980B208302200C019083100F0DF
:401A400018F9B7E4102CF0D018226B78012493431A00102313436B7003E74F4B1B78DBB2042CF1D1002BEFD1414B1A7A462AEBD19F7A5A7A3F02174338004849FEF764FFB2
:401A8000059B9F42C8D1464A13781C431470C3E77B1E0A2BD8D8182239005143C9B20B2F00D1083A3B4B1039C9B2C918281D00F0E0F8002CC8D105340B2F00D1D1E6EBE64E
:401AC000042CC1D12A4B1A7A462ABDD1304A0E201278033C002A00D1EEE65A7A997A314B09021B88114307388B4200D3E4E680239B00994200D3DFE68022284809025200AF
:401B000000F0B7F82000D7E6042C9DD1184B033C187AFEF73FFCCFE6214B002C94D11B7802342B719DE6082C8ED1114B9868D968802342189B029A4286D200F089F8063CDC
:401B400028718EE6002C00D07EE7EC236C60E6E7074A51680A0C9A4200D02BE4124A0B0A1160E721194010230B4353703EE6C0464C0A00207804002000000A4068080000F7
:401B80005405002000FF0A403CF1FF0F200C200009070020000600200A07002008060020380A00208C040020340500200222044B19680A431A60012219680A431A607047DF
:401BC00010E000E00221044B1A688A431A601A6801398A431A60704710E000E00421044A8000136808408B43184310607047C04610E000E0034A80B2136C1B0C1B040343EA
:401C000013647047000003400122024B5A645B6C7047C0460000034010B5FFF7F5FF024800F030F910BDC046DC100020000000000230800803D00138FDD1C046C046C046A7
:401C40007047EFF3108072B6704780F310887047031E08D0081E06D0180059180023884202D15842C0B27047027801309B18DBB2F5E7002310B5934200D110BDCC5CC45437
:401C80000133F8E770B5084B04001B6C02899BB20D009A4202D06420FEF7C0FF2800FFF7A9FF258170BDC04600000340F7B500230500FF2001331A01AA18D0803F2BF9D1D9
:401CC000FF2300279B00EF54214B224CEF5401232960E26C204E9A43E264204AA263E26C1343E3648023E26A1B061343E362FFF78BFFFFF767FFFA21B7602868890000F0F8
:401D00005BF901380002000A7060E26B92B2E36B9BB29A42FBD0E76B0120BBB20193FFF75DFFFFF743FF02223368934380223360520233681342FCD0E36B01999BB299427F
:401D400000D91343DF1B6F81FFF73CFFF7BDC046FD0300000000034010E000E06588EDACF0B585B0040016001D0000270391FF2A66D0BB4264D003000C330193FFF761FF3E
:401D8000FB239B00E118FF223E2302904889DBB2FF2800D11A004889B04246D1FF218900625C013AD2B262543249625C013AD2B262541A00019B12019A180A9B1581536020
:401DC000039B5681D36063892A4E5D432A4B1560E35C002B1DD1294DEB6BA05D99B2002835D0A5880B00A8B28D422CD211681B1A9BB25B1813601168E388994209D213685F
:401E000020009BB2E380A188E388C91889B2FFF739FFFF229200A35C01270133DBB2A354A35D0133DBB2A35507E0013B5BB21039581CABD10027FF2ABCD10298FFF705FFCF
:401E4000380005B0F0BD802149025B18CEE7A18013680B4A934200D913009BB25918E380200089B2FFF70EFF0123EA6C1343EB64CFE7C046FD030000FE0300000000034064
:401E8000C0FF00000122F0B504003D4B85B0C25403933C4FFB6BA08899B21B0482B21B0C884263D226009B1A9BB20193FF230C3635009B00E318A18002936B8998B2FF2B48
:401EC0001ED0019B2A6805339A4253D92B68019A9B1A2B602B68002B12D1FF22FF336B819200A35C013BDBB2A354274AA35C013BDBB2A3546B68002B02D06B68E9689847E4
:401F0000029B10359D42D8D11F4D2049635D002B17D07389FF2B03D033688B4200D23168029B10369E42F4D1A088FB6B82B29EB21B041B0CB0421FD29B1A9BB205338B42FA
:401F4000A7D889B2E180A3882000C91889B2FFF799FE0023039AA354635D002B04D101220849CB6C9343CB6405B0F0BD802040021B1897E70023ACE7802040021B18DBE7A9
:401F8000FE03000000000340FD030000C0FF000002B4714649084900095C49008E4402BC7047C04603B47146490840004900095A49008E4403BC7047002243088B4274D35F
:401FC00003098B425FD3030A8B4244D3030B8B4228D3030C8B420DD3FF22090212BA030C8B4202D31212090265D0030B8B4219D300E0090AC30B8B4201D3CB03C01A5241E2
:40200000830B8B4201D38B03C01A5241430B8B4201D34B03C01A5241030B8B4201D30B03C01A5241C30A8B4201D3CB02C01A5241830A8B4201D38B02C01A5241430A8B42B8
:4020400001D34B02C01A5241030A8B4201D30B02C01A5241CDD2C3098B4201D3CB01C01A524183098B4201D38B01C01A524143098B4201D34B01C01A524103098B4201D3EC
:402080000B01C01A5241C3088B4201D3CB00C01A524183088B4201D38B00C01A524143088B4201D34B00C01A5241411A00D20146524110467047FFE701B5002000F006F87D
:4020C00002BDC0460029F7D076E770477047C046084B10B50400002B02D0002100E000BF054B1868836A002B00D09847200000F03BF8C046000000008C22000070B50026A8
:402100000C4D0D4C641BA410A64209D1002600F02DF80A4D0A4C641BA410A64205D170BDB300EB5898470136EEE7B300EB5898470136F2E7F8040020F8040020F8040020D8
:40214000FC040020002310B59A4200D110BDCC5CC4540133F8E703008218934200D1704719700133F9E70000FEE7C046F8B5C046F8BC08BC9E467047F8B5C046F8BC08BC17
:402180009E46704701005200FF005200040052000400520005005200FF005200000000000800500009005000FF005200FF005200FF005200FF005200FF005200FF005200F5
:4021C000FF00520021005200FF005200210052002100520001000000040000000F0000000000000000000000000000000000000000000000000000000000000000000000D0
:4022000001000000040000000F0000000000000000000000000000000000000000000000000000000000000000000000000005400000064000000740000008400000000070
:402240006FC75E10DE8EBD20B149E330BC1D7B41D3DA25516293C6610D549871783BF68217FCA892A6B54BA2C97215B2C4268DC3ABE1D3D31AA830E3756F6EF30002044098
:402280000001044000000440000304409804002000000000B4DEFF7F01000000B02200007C0400202100000000050020F70300000000E02EC05D0000180032000002000256
:4022C00000020002130000010800000000000000000000000000000000000000000000000000000000000000000000000000000000000000000000000000000000000000BE
:402300000000000000000000000000000000000000000000000000000000000000000000000000000000000000000000290100000101000000000000000000000000000071
:40234000000000000000000000000000000000000000000000000000000000000000000000000000000000000000000000000000000000000000000000000000000000005D
:40238000000000000000000000000000000000000000000000000000000000000000000000000000000000000000000000000000000000000000000000000000000000001D
:4023C00000000000000000000000000000000000000000000000000000000000000000000000000000000000000000000000000000000000000000000000000000000000DD
:403000004649011200060008E98AF73900000000000000009C044000D001440000000000000000004353445000010C00B40401FA4379707265737300000000000000000075
:403040000000000000000001B40401FA000000000000000300000000000000000000000000000000B40401FA000000000000010000000000000012121E000000000002148D
:40308000000000000007010000000001000000000000040F000000000000000000000000000000000000000000000000000000002C910100C8D00200C8B004009640060044
:4030C0000000000000000000000000002C01C800C8000A000000000000000000000010313C3C3C000000000000000000000000000000000000000000000000000000000014
:4031000000000000000000000000000000000000000000000000000001010000B404000000003F0000000000000000001400000041A000FFB404401800000000000001FA97
:40314000000014002C01000040010000400100000000000000000000000000000000000000000000000000000000000000000000000000000102140A020000000102140A48
:40318000020000000000000000000000000000000000000000000000000000000000000000000000000000000000000000000000000000000000000000000000000000000D
:4031C000000000000000000000000000000000002400F4001801140040011400540108005C010800640108006C0108007C01080084010C009001080098010800A00104009C
:40320000A4011000B401040000000000B801180000000000670013001B000000000000000100000001000100000000000000000000000000D007A406D85900000000000005
:403240000000000000FF000003030000000000000000000000000000000000000000000000000000640250005000000000000000000104505050000007070707030F4432AA
:40328000003C000014001400000007070707304E120000000000000000000000000000000000000000000000000000000000000000000000070707070000000000000000E2
:4032C00000000000000004040404000000000000010046051E02224B0000000000000000000000004300580300000000000000000000000000000000000000000000000047
:403300000F0000009C534936BA6B793FE17A0D434501E8030303230000000000BD3706363A237A3F9AF9A2434501E80303014F01000000009C5349366666763FEC11CD43EF
:40334000EE02DC050301C102000000000000000000000000000000000000000000000000000000000000000000000000000000000000F82AD039C8000000B80B0000983A2D
:40338000204E204E00001E001E000000000000000000000000000000640000006022F401030000008813E231F401D007000000000000000000000000000000000704000092
:4033C000000000000000000032000200000001000100B80B204E1932C800000000000000000000000000000000000000000000000000000000000000000000000000000053
:4034000000000000000000000000000000000000000000000000000000000000000000000000000000000000000058023C00000000000000000000000000000094023C0024
:4034400000000000000000000000000000000000D002A000000000000000000000000000010000000000000000000000000000000000000000000000A00F0A001450000AB2
:403480007D69463C000000000000000000000000000000000000000000000000140244007003F00000000000000000000000000060041800780424000000000000000000CB
:4034C00000000000000000000000000000000000000000000000000000000000000000000000000000000000000000000000000000000000000000000000000000000000CC
:40350000000000000000000000000000000000000000000000000000000000000000000000000000000000000000000000000000000000000000000000000000000000008B
:40354000000000000000000000000000000000000000000000000000000000000000000000000000000000000000000000000000000000000000000000000000000000004B
:40358000000000000000000000000000000000000000000000000000000000000000000000000000000000000000000000000000000000000000000000000000000000000B
:4035C00000000000000000000000000000000000000000000000000000000000000000000000000000000000000000000000000000000000000000000000000000000000CB
:40360000000000000000000000000000000000000000000000000000000000000000000000000000000000000000000000000000000000000000000000000000000000008A
:40364000000000000000000000000000000000000000000000000000000000000000000000000000000000000000000000000000000000000000000000000000000000004A
:40368000000000000000000000000000000000000000000000000000000000000000000000000000000000000000000000000000000000000000000000000000000000000A
:4036C00000000000000000000000000000000000000000000000000000000000000000000000000000000000000000000000000000000000000000000000000000000000CA
:403700000000000000000000000000000000000000000000000000000000000000000000000000000000000000000000000000000000000000000000000000000000000089
:403740000000000000000000000000000000000000000000000000000000000000000000000000000000000000000000000000000000000000000000000000000000000049
:403780000000000000000000000000000000000000000000000000000000000000000000000000000000000000000000000000000000000000000000000000000000000009
:4037C00000000000000000000000000000000000000000000000000000000000000000000000000000000000000000000000000000000000000000000000000000000000C9
:4038000000400020816900006B6900006D690000000000000000000000000000000000000000000000000000000000006B69000000000000000000006B6900006B69000018
:403840006B6900006B6900006B6900006B6900006B6900006B6900006B6900006B6900006B6900006B6900006B6900006B6900006B6900006B6900006B6900006B69000008
:403880006B6900006B6900006B6900006B6900006B6900006B6900000000000000000000000000000000000000000000000000000000000000000000000000000000000010
:4038C0000000000000000000000000000000000000000000000000000000000000000000AB00001069770000C11180310000000000000000000000000000000000000000AA
:4039000010B5064C2378002B07D1054B002B02D0044800E000BF0123237010BD000B0020000000004CE40100044B10B5002B03D00349044800E000BF10BDC046000000009E
:40394000040B00204CE40100402292029A1A92467047C046174B002B00D1134B9D46FFF7F3FF00218B460F461348144A121A18F0AFFF0E4B002B00D098470D4B002B00D0B9
:4039800098470020002104000D000D48002802D00C4800E000BF18F051FF2000290000F0D9FD18F035FFC04600000800000000007769000000400020000B0020183600200A
:4039C000000000000000000010B500F0F1F900F005F800F0F7F800F079F910BD10B5774C0021012005F004FE22000021012005F049FD0021012005F0D9FD0121080005F0A1
:403A0000F7FD01212200080005F03CFD0121080005F0CCFD0221012005F0EAFD00220221012005F02FFD0221012005F0BFFD0321012005F0DDFD2F220321012005F022FDD6
:403A40000321012005F0B2FD0421012005F0D0FD03220421012005F015FD0421012005F0A5FD0521012005F0C3FD04220521012005F008FD0521012005F098FD002102208F
:403A800005F0B6FD1023BA220021022005F046FD0021022005F08AFD0121022005F0A8FD0023474A0121022005F038FD0121022005F07CFD0021080005F09AFD00214F221C
:403AC000080005F0DFFC0021080005F06FFD0121002005F08DFD03220121002005F0D2FC0121002005F062FD0221002005F080FD00220221100005F0C5FC0221002005F0EB
:403B000055FD0321002005F073FD17220321002005F0B8FC0321002005F048FD0421002005F066FD2F220421002005F0ABFC0421002005F03BFD0521002005F059FD2F22C3
:403B40000521002005F09EFC0521002005F02EFD0621002005F04CFD00220621100005F091FC0621002005F021FD0721002005F03FFD2F220721002005F084FC0721002081
:403B800005F014FD0821002005F032FD02220821002005F077FC0821002005F007FD0921002005F025FD00220921100005F06AFC0921002005F0FAFC10BDC046BF5D00003F
:403BC0007FBB000010B505220121002005F0CCFC08220021012005F0C7FC04220121032005F0C2FC03220121042005F0BDFC02220121052005F0B8FC09220021062005F0CA
:403C0000B3FC01220221072005F0AEFC01220021082005F0A9FC00220920110005F0A4FC052200210A2005F09FFC022200210D2005F09AFC032200210B2005F095FC0422B6
:403C400000210E2005F090FC002201210F2005F08BFC06220021102005F086FC07220021112005F081FC01221220110005F07CFC01220021132005F077FC0022142011008F
:403C800005F072FC05220021152005F06DFC03220021162005F068FC04220021182005F063FC00220121192005F05EFC062200211A2005F059FC072200211B2005F054FCBB
:403CC00001221C20110005F04FFC10BD10B5254C00212000244A04F04FFF01212000234A04F04AFF02212000214A04F045FF03212000204A04F040FF20001F4C04211F4A54
:403D000004F03AFF022120001D4A04F035FF032120001C4A04F030FF042120001A4A04F02BFF2000194C0621194A04F025FF00212000184A04F020FF2000174C0121174A0D
:403D400004F01AFF00212000154A04F015FF01212000144A04F010FF03212000124A04F00BFF10BD0000044040CD0100C4CD0100A0CE010074CE01000001044050CF010085
:403D8000CCCE0100F8CE01007CCF01000002044024CF010098CD0100000304406CCD010048CE01001CCE0100F0CD01007047000070B58025274C30202D0605F0CDFC2563B7
:403DC000254805F09FFA002005F018FB0C22A36A9343A362A36AB4329343A36202F020FE002005F025FCE36A1C481D43E56205F089FA10201A4B1B491A6882431A609A68EA
:403E00001140802252010A439A609A69164982439A610B68154A11481A4080231B0313430B6005F04DFA002005F0E8FA011E02D00620FFF7BBFF0C22A36A30209343A3626C
:403E4000A36AB4329343A36205F086FC02F0E8FD70BDC0460000034000366E01006CDC0200030440FF8FFFFF00030240FFFFF0FF004870470030000010B500F063FB012356
:403E80004030037010BD000070B500F05BFB0500002000F04DFB04002800062200213C3018F016FD00F04EFB0749806B03F08EFC9823064A9B00E250054A0433E250054ABE
:403EC0000433E25070BDC046F8D00100894000007F4000007540000010B500F02FFB806804F0FDFD83880400002B07D0002000F01FFB0023A188024A09F0C6F810BDC0460E
:403F00009340000010B5002000F012FB002109F045F910BD70B500F011FB806804F0DFFD03880400002B0CD0002000F001FB0A210500208817F080F8024A81B2280009F035
:403F40009BF970BDA340000010B5002000F0F0FA002109F0B9FA10BD10B5002000F0E8FA9621024A890009F05DFB10BDB340000010B5002000F0DCFA09F0F8FB10BD10B5C7
:403F8000040000F0DFFA3D30047010BD70B5050000F0D8FA0400E81E072814D817F02EF804141E46323C285001212A4A606B0EF0DDF80120FFF7E3FF1323606B3121C3752E
:403FC00043681B68984770BD0121234A606B0EF0CDF80120FFF7D3FF1423EEE701211F4A606B0EF0C3F80120FFF7C9FF1523E4E701211B4A606B0EF0B9F80220FFF7BFFFAD
:404000001623DAE70121174A606B0EF0AFF80520FFF7B5FF1923D0E70121134A606B0EF0A5F80520FFF7ABFF1A23C6E701210F4A606B0EF09BF80120FFF7A1FF1B23BCE7CE
:4040400001210B4A606B0EF091F80120FFF797FF1C23B2E7A8CF0100BCCF0100D0CF0100E4CF0100F3CF01000AD001001ED0010039D0010010B50820FFF788FF10BD10B507
:404080000720FFF783FF10BD10B50620FFF77EFF10BD10B5FFF736FF0320FFF777FF012010BD10B5FFF750FF0420FFF76FFF012010BD10B5FFF75CFF0520FFF767FF0120C4
:4040C00010BD10B50320FFF75AFF10BDF7B500F039FA050000F036FA3C35040068780138042821D816F08AFF0392A020AE008B4A0121606B0EF03AF800F020FA09210EF092
:4041000033FF606B0FF0D6FA00F020FA040000F019FA834B0100009320003223814A16F0D7FD0020FFF72BFF00F00CFA040000F005FA806804F0D3FC050000F003FA4130EF
:404140000378002B26D000F0FDF900264130067000F0F4F9744A01210EF008F800F0EEF904210EF001FF00F0EDF9406B0FF0A2FA3000FFF704FF300000F0ECF8310013F07E
:40418000D8FAB04206D0300000F0E4F83200042113F0EEFA3C342379002B00D1A6E000F0CDF9624BC65C002E00D09FE02671AB7A002B6DD000F0C6F9070000F029FD320075
:4041C00030005B4900F0CAFC300000F0C3F8310003F046FB0600433700F020FD3E7000F0B1F943300278AB7A9A424ED3E378002B46D000F0A7F943300278EB7A9A4247D898
:4042000000230320E370FFF7BAFE41E0494A0121606B0DF0ABFF00F091F909210EF0A4FE606B0FF047FA7CE7434A0121606B0DF09DFF00F083F90A210EF096FE606B0FF037
:404240001BFA6EE73D4A0021606B0DF08FFF00F075F909210EF088FE606B0FF02BFA0020FFF78DFE02F075FB642005F069FABFF34F8F334B334ADA60BFF34F8FC046FDE7BD
:4042800001230220E370FFF77AFEE378002BB0D12B7A002B2AD000F055F90600002000F047F90322002108F0D3FC4236307000F049F9423002782B7A9A4214D3A378002BA1
:4042C0000CD000F03FF9423002786B7A9A420DD800230320A370FFF752FE07E001230220A370FFF74CFEA378002BEAD100F02EF9154916F0BCFD00280ED1207100F026F92D
:40430000040000F01FF9114B01000093FA2320000D4A5B0016F0DCFCF7BDC0464BD00100C3400000CA020000D2D001004C080000000004406FD0010096D00100B3D00100A9
:4043400000ED00E00400FA05C9020000793E000001207047014B8000C0587047BC04002000487047800D00200048704710D2010001210C4B027899541A78002A03D05B78C8
:40438000002B00D072B6084A0849136809680B431360BFF34F8F064B064ADA60BFF34F8FC046FDE7A40B002078040020A80B002000ED00E00400FA0510B5024808F08CF90B
:4043C00010BDC046C025002010B5024808F084F910BDC0463C23002010B5024807F00CFA10BDC046C025002010B5024807F004FA10BDC0463C23002010B509F0DBFA0248F8
:4044000016F06CFD10BDC0463C1F002070B500281AD1104D104C2A000321206813F0A8F90C2300280ED12A000321606813F0A0F9002802D00122094B5A700022084B1A6042
:4044400002235B42180070BD0021054B18600800FFF78EFF71430000BC040020A40B0020A80B002010B50448044A002901D00021034A0DF07BFE10BDF011002020D101006E
:4044800035D1010000223021100010B500F0C4FD064A074B11680B431360BFF34F8F054B054ADA60BFF34F8FC046FDE7780400204C42000000ED00E00400FA0537B5002433
:4044C0000094019404F07CFA812301280ED1164804F0D8F88021431E9841FF2289002F23C4005200080004F04FF995232100180012F03CFC0D4B1D6829002D0AE031ADB252
:40450000002C0DD1084B1C682200240AE032A4B2E02012F031FC2800210012F049FC37BD80246A46A400F3E780FE010080FF0100014B8000C058704730050020004870476F
:40454000F011002000487047F01E0020004870473C1F0020F0B585B002F002FA012004F029FA9A499A4805F091F88023994C23600126994B9D6A04F067FF31002D06AD0F99
:40458000A940F1400918E940944816F047FB62B6934D944A2900944800F04CFB04F0CAF9924804F0FFF992498E4802F019FC9149914805F06BF89149914805F067F8914940
:4045C000914805F063F89149914805F05FF880239B012360202323608023DB0123604023236004228B4B8C4C1A6492188B491A6420008B4A04F084FD802322681B061343C7
:4046000023609427FFF734FC864CBF00E051FFF72FFC854BD851E05904F00AF8071E01D0FFF730FF200004F08CFA8A22037BFF322000A35404F085FA81210830C37F8900CC
:404640002000635404F07DFA8A22037B7648FF328354200004F075FA81210830C37F724A89005354714B39000193714B714A00932000714B07F04AFD6C4B310001936F4B9A
:404680006F4A009368486F4B07F040FD200004F051FA524B020001936B4B2100009351486A4B12F0B7FD4F4802F029FA0028B7D021005D4A280010F061FEFFF7D9FB474B0A
:4046C0000100634A28000EF071FF3100614A28000DF04CFDAB2331005F4A029328003300019700970DF042FD3B005C4A31002800019700970DF03AFD594B5A4A1B78127827
:404700001B02134304D131002800574A0DF02EFDB623344CDB00E258E2235B00D358534A20009A60524A1A6102F096FC200002F017FB200002F0FAFAFFF7A6FB002231218F
:40474000200000F069FC04F00FF9FFF791FB04F088F9C37C224E002B09D002F0B9F8012002F0DAF801213000424A0DF0FFFC200012F080FE572012F0C9FC3F4B03211868B4
:4047800012F0E0FC8022802180202F2392004900800212F0C9FCFFF791FE12F0BDFC124D280000F0CBFAFFF791FC200012F086FE200002F0AEF930000EF09AFF280001F084
:4047C0001BFC04F0E9F812F05DFBE8E7F9430000A4D2010000E100E0000003403C1F0020F0110020AC0B0020F01E00206544000070D20100E943000084D20100C9430000D1
:404800008CD20100D943000094D20100B94300009CD201000001044000000640FCCC01006C0B00203C230020C0250020614300001C0B002000000A4000FF0A40440B0020CF
:4048400000000B4000FF0B405CD2010010D20100C40400204FD101005CD1010084D1010099F3FF0F9AF3FF0FA2D1010054D2010068D20100F3D10100BC04002010B50F245C
:4048800089008C408A40054BC018054B000AC01800020368A3431343036010BD0000FCBF00024000072370B503251E004D431340AE40AB408468D208B443234301248C4044
:4048C0008A4083608369A3431A43826170BD9E230122DB00CA54704710B5FFF733FE01234430037010BD0000F8B5060015000F001C00FFF727FE0223B17A727A4900194088
:40490000013B1A401143AA0011436A4255413F01394308276D422C401C40B943124B090619408C4643698068990563468005E4061C43830D18008D0D090B0C432043240E75
:40494000274204D19D4202D9800A800228430123D536FF36B27C93429B41044A5B42DB0510401843F8BDC046FFFFFFF7FFFF7FFF10B5FFF7E3FD024BC358984710BDC0462F
:404980004408000010B5FFF7D9FD84231B01C358984710BD10B5FFF7D1FD024BC358984710BDC046FC07000010B5FFF7C7FDE423DB00C358984710BD10B5FFF7BFFD024BFE
:4049C000C358984710BDC0462407000010B5FFF7B5FDE523DB00C358984710BD10B5FFF7ADFD044BC35898470322034B5A635B6B10BDC046880A0000FC00094070B5040031
:404A00001E000123A340A240074D28689843104328600A0028002100FFF744FF320028002100FFF72BFF70BD00000440F7B5FA258A23AD0004002800FF330F005043E15CDB
:404A4000160016F0F9FA2378262401905C43962F2AD1354B354AE318A2181B781178344A1B02A2180B431178324A0902A4182478FA222143FA2452000A260A2501987642D7
:404A80005E4368433618101BC91A704316F05EFB6C430419230000200E3303DB2900601D16F054FB80B2FEBD234B244AE1180B78A7183A781B0213439E420FDA204B214A4B
:404AC000E3181B78A41822781B021343FA2209783C7809022143D2002C00CDE71A4B1B4AE5182B78A21810781B0203439E420BDAFA240B7839781B020B4329781278090226
:404B00001143E400124AB7E72B781178114A1B02A2180B431178104A0902A418FA222478120121430A4CA7E799F3FF0F9AF3FF0F9BF3FF0F9CF3FF0F91F3FF0F92F3FF0F47
:404B40008DF3FF0F8EF3FF0F95F3FF0F96F3FF0FB80B000097F3FF0F98F3FF0FF7B50D0014000190FFF7EEFC254F264B2649FA5806000A40FA50254AD0580840D0500198E1
:404B80000138052827D816F039FA030B12171C21FA580A40E021C9001143F95006221DE0D0580840E021C9000143D150F6E7FA580A4080214900EFE7D05808408021490089
:404BC000F2E7FA580A40D0210901E5E7D0580840D0210901E8E7019B1A1EDFD121002800FFF74CFE092221002800FFF75BFE337F002B03D1019B356273777462F7BDC04611
:404C000000000A40BC080000FFF0FFFF00000B4010B5FFF797FC0123037710BD10B5FFF791FC03000022196A0277407F5A6AFFF795FF10BD73B50E00150000214C22040054
:404C400017F046FE002E16D0002D14D00A4B6663E3620A4BA5636380FFF778FC0400FFF771FC074BB3220093FA2301005B002000920016F02DF873BD00000640881300002F
:404C8000D94800000020704770470020704710B50800110015F032FF04000120FFF748FC0122002108F020F80123844200DB0023D8B210BD10B50120FFF73AFC0122002112
:404CC00008F012F810BD0000030013B544331A780400002A29D00022806B1A70FFF7EAFF03210300114A606B0DF040FA2300433303211B780E4A606B0DF038FA23004233B6
:404D000003211B780B4A606B0DF030FAFFF71EFC0400FFF717FC084BB3220093FA2301005B002000920015F0D3FF13BDACD20100BDD20100D1D20100D9480000F7B5060045
:404D4000806BFFF7B7FF474A03003085706B93421FD8837B002B01D00EF0ACFC9E23746BDB00E25C002A54D000223F4FE2543F4BE253E05C3E4D3F4B0A2800D970E09F21F4
:404D8000C90016F03BF90C134A6D4E1151606D4E1100837B002BE1D10EF06EFCDEE76255354AA25C002A1AD1E25418E0625C012A0BD00122E25462533049625C092A0BD8A0
:404DC00001326254C822E25309E0E15C5140E154615D4A406255EFE70022E2546253E15C636800205B6E9847636801205B6E615D98471E4BE25C0133E254E35B002B08D069
:404E00001F4A20480092B22221002058920015F05FFF3000FFF758FFF7BD012262550022C2E762550122BFE7625C062A06D00022E25401326253C8225200C4E70122615D8B
:404E40004A406255F7E7615C0122072904D0E25400226253FA22B6E7E15C4A40E254F9E76255A1E787130000F4040000F7040000F2040000F10400000F070000F3040000C8
:404E8000CF480000FC0C00007047000010B5FFF759FB040001F05DFD034BA362FF233034237001F05AFD10BD20032003F0B58BB00F0003920500FFF745FB436B986803F097
:404EC00009FE0378002B06D139002800039A02F065F90BB0F0BD2B001933FF330293FFF731FB2B78040008933B8900269B059B0D01932B007C331B780793029B9C46079BE8
:404F0000B34272D07B780020069363E0811C89007B18DB789B095CD1322263880593CB591B039B0D5A4313000492059A934250D16246322312681203920D5A43049B934296
:404F400047D16346CA5B198892058905880D930D914200D2031C9BB26361A360330074335B000999EB189B88013100222800DB0BC9B2FFF7B9FC0700FA21029BB6009E19C7
:404F8000336849001A033388920D9B05980D22616061504315F09CFD019B6269E060934200D263612B00EC331B882269A36032235343228D934200D22385089801F0A6FE31
:404FC0000760287801F0A2FE039B0100280098477FE70130C3B20993069BC2B2934295D804230136F6B29C4489E7002E08D10122330011002800FFF777FC26700700BBE7E0
:405000002B00FC335F6CB7E7704710B501F0A1FC01F0A3FC10BD000070B506000C00FFF791FA05000C2C10D0FFF788FA23000421124A0DF09BF8162C0ED007D82300F7228A
:405040000A3B134216D0032C14D070BD242CFCD10A20FEF79BFFF8E73300A2331B882B856B85B223DB00F35C012B03D10223FF332B80EAE700232B70E7E7C046E5D2010054
:4050800070B50E000400FFF75DFA0500F01E30283DD815F0C7FF31003D0047008C009800A6004E003C00A0003C009C009E003C0056003C006A016E016400A4006A006D007B
:4050C0006F00710073007500A800AA007C00AC00AE005301560158015A015C015E016001620164016601680173018E01920145024A024E0244009601FEF704FFFEF724FF48
:40510000FEF736FF00232B760133FF336B8370BDFEF7E2FEFEF7FEFEFEF71EFFF7E701232B76F4E70121A94A297620000DF01EF8EDE70121A64B6976E35CA64A002BE6D0ED
:40514000F3E7230059331B78A34A032120000DF00DF823005A331B78A04A032113E00123AB769F4B9F4AE356F7E79F4A0121DCE79E4AFBE79E4AF9E79E4AF7E79E4AF5E783
:40518000237E9E4A012120000CF0F0FFBFE79C4B9C4AE35CA15C9942B9D0A3540132A25C9A42B4D09E230122DB00E254AFE7964B964AE358012120000CF0D8FFE623DB001E
:4051C000E358934AC9E7934B934AE358C5E7934ACCE7934ACAE7E31DDB7F924ABDE7924AC4E7924AC2E7924AC0E7924ABEE7924ABCE703212000914A0CF0B8FF904BE05CD5
:40520000222800D192E02FD815281AD8032800D87DE70438112800D979E715F0F9FE3A003C003E00400078FF750078FF78FF78FF78FF78FF78FF78FF78FF78FF78FF78FF9D
:405240007700202800D062E77E4A012120000CF08DFF7D4B7D4AE05C062887D815F0CEFE585A5C5E60626400552863D00AD851285ED0774A542800D178E7764A252800D185
:4052800074E744E7712857D0734A812800D16DE73DE7724A6AE7724A68E7724A66E701212000714A0CF062FF674BE05C372815D8242804D81638012818D96C4A56E7253864
:4052C0001228FAD815F090FE1E1212F9F9F9F9F9F9F9F9181A1CF9F9F9121200672809D8652803D8472803D84528E6D9604A3DE75638E0E77638DEE75E4A37E75E4A35E73A
:405300005E4A33E75E4A31E75E4A2FE75E4A2DE75E4A2BE75E4A29E75E4A27E75E4A25E75E4A23E75E4A21E75E4A1FE75E4A1DE75E4A1BE75E4A19E75E4A17E75E4A032115
:40534000F3E65E4AFBE75E4A10E75E4A0EE75E4A0CE75E4A0AE75E4A08E75E4A06E75E4A04E75E4A02E75E4A00E75E4B5E4AE358F3E6E723DB00E3585C4AEEE65C4B0321B1
:40538000E3585C4A20000CF0F1FEF423DB000321E358594A20000CF0E9FE584B584AE358032120000CF0E2FEF323DB00E358554AD3E6554B554AE358CFE6554B554AE35C39
:4053C000CBE6554B554AE35CDCE6C046F6D201000C07000007D3010017D301002FD30100DB0A000047D3010054D301005CD3010064D301006CD3010074D301007CD30100A9
:40540000F6040000F70400003C0700008DD301009DD301002C070000ACD30100BED30100C5D30100CCD30100DBD3010010D4010021D4010031D4010045D4010065D4010000
:4054400001080000EFD4010002080000CAD501006AD501005ED5010081D5010074D401007AD4010084D401008ED40100CDD40100C1D4010096D40100A0D40100ABD40100FE
:40548000BAD40100E0D40100E9D40100F7D4010001D5010012D501001FD501002BD501003AD5010049D5010053D5010064D5010073D501007CD501008AD501009AD501006C
:4054C000A9D50100B6D50100C3D50100CFD50100DDD50100EAD50100F6D5010003D6010010D60100340700001DD6010032D601009C07000043D6010051D6010094070000AB
:405500005ED601006ED60100DC07000080D60100E607000097D60100E7070000ACD60100FD23DB00E358074A17E6074B074AE35813E6E37D064A19001339092900D90CE67E
:40554000002120E6C8D60100EC070000D9D60100ECD6010070B500251A4B1B4A802183501A4A1D601A601A4A89001A6207225A500131FF315A5004002900B432022003F0AC
:4055800081FF02212A00080003F0EEFF01228026104D0E2311001000FFF730FAF6002B1DDE67BFF34F8FBFF36F8F0B490A2004F059F82E60094B0A49E25897239B00D15033
:4055C00070BDC046000007403C0800000F0800810100008000E100E085490000F80C000071490000F8B5C0270E001500040001F0B0F9164BFF00DA59154976020A40AA21B4
:405600001643DE51062689005A58920A92025A505A58B2431600042232435A5010225E5832435A500B4A0C4EA158962292008E500A4AAE21A550202289005A5008315C584E
:4056400022435A5001F089F9F8BDC04600000B40FFF1FFFFF80C000095490000FC070000F8B5C0270E001500040001F072F9164BFF00DA59154976020A40AA211643DE51B2
:40568000062689005A58920A92025A505A58B2431600042232435A5010225E5832435A500B4A0C4EA158962292008E50E422AE21D200A550202289005A5008315C5822436D
:4056C0005A5001F04AF9F8BD00000B40FFF1FFFFF80C0000A949000070B5B025040001F038F92021084BAD005A598A435A51AE2292009950054B0021E25896239B00D150F1
:4057000001F02BF970BDC04600000B40F80C0000F8B5150004000E0001F01BF9C022E027154BD20099587601B94331439950AA2189005A58114E32405A505A58104E164036
:405740008022120132435A5080225E58D20132435A500C4A0C4EA158972292008E500B4AAE21A550402289005A5008315C5822435A5001F0F2F8F8BD00000B40FF03F0FFC3
:40578000FFE7FFFFF80C0000B94900002407000070B5B025040001F0DCF84021084BAD005A598A435A51AE2292009950054B0021E25897239B00D15001F0CFF870BDC0462E
:4057C00000000B40F80C0000F8B50600164C0F0001F0BFF8154A1649A35805005B005B08A350144B1420F25895239B00D150E5231621114ADB00F750A3588B430343A35010
:405800008D2281231201A1580B43A35003F098FF04230A4A2800A350094AA1580B43A35001F09BF8F8BDC04600000B40BC080000CD490000F80C0000102000003C20000027
:405840004420000070B5040001F083F88D2181250A4B09015A58AA435A500421084D5A598A435A51074A9950074B0021E25895239B00D15001F071F870BDC04600000B405B
:40588000442000003C200000F80C0000F7B50B000E00344A042104000CF068FC032E1ED83000314D15F0AAFB0226523C2F4F21787B59A068019303F0D8F80723019A4C3098
:4058C0009A43130002782A491343062000227B51FFF744F9274A032120000CF047FC03212000254A0CF042FC0022244BE654244BE254F7BD1D4F21787B59A068019303F0C1
:40590000B4F80723019A4D309A431300027818491343062000227B51FFF720F9194ADAE7194F21787B59A068019303F09EF80723019A4E309A43130002780D491343052099
:4059400000227B51FFF70AF9104AC4E707230E4A052051590B43535105490022FFF7FEF80B4AB8E7F9D60100BC08000000000B40000004400AD70100C7D801001E080000DD
:40598000230800001ED7010000000A4032D7010045D70100F8B58027154E164D040000213000154A03F016FF3F022B1DDF67BFF34F8FBFF36F8F11490F2003F053FEC322BE
:4059C000C0219200AB5809061B021B0A0B43AB502F60320001230021FC32D363084AA650084AA1500432A3500F22074BE252F8BD0000094000E100E034CC0100DD490000DC
:405A0000780A00007C0A0000840A000010B500F0A0FF802304000649064A9B01885803438B50142003F08CFE200000F096FF10BD00000B406021000010B500F08AFF08491B
:405A400004000848084A43581A408023DB0113434350142003F074FE200000F07EFF10BD6021000000000B40FF9FFFFFF7B500F070FF0424DC26104D104A2B680190134065
:405A80002B6010230E4F30003B6400F059FF1023013C30007B64E4B200F052FF002CF0D12A68064B01981A4080231B0313432B6000F053FFF7BDC04600000240FFFFF0FFCE
:405AC0000000044010B500F044FF04000823002206210420FEF792FF0222054B200019680A431A60802292049A6000F036FF10BD0000094010B500F02CFF0221034A136834
:405B00008B43136000F029FF10BDC0460000094070B500F01EFF05000020FEF709FD04F047FB0400280000F018FF200070BD0000014BC05A7047C046CA0A0000F0B500202C
:405B400085B00191FEF7F4FC4768050000F001FF504A0390BB580A205B005B08BB50C5221023D200B95801260B438C21BB50802309017A581B0513437B5003F0E1FD0122C4
:405B80000021280006F0B8FF00210200280006F076FF414B040098425DD98C2109017B583E4A0A2013407B5003F0CAFD32000021280006F0A1FF00210200280006F05FFFD5
:405BC0000400019B9E422BD328230293019B002B05D058080019190015F02EFA040026232A7853432E4A9A1816782E4A36029B181878064334D028000299A2B2FEF716FF4E
:405C0000C5221021D200BB5804008B43BB500A2003F096FD039800F0A0FEA0B205B0F0BD01220021280006F067FF00210200280006F025FF01362418F6B2C2E701220021C8
:405C4000280006F059FF00210200280006F017FF01362418F6B2019B9E42EFD39623B4E7114B6421E85A029B5843323015F0E4F980B2844200D9261A8A23FF33E95C029B39
:405C80000A484B4370435E081900801915F0D4F9B6E7C046BC0800003A070000FFFFFFF799F3FF0F9AF3FF0F020200001027000013B50020FEF73CFC07F036F9FEF742FCED
:405CC000012348300370FEF741FC0400FEF73AFC044B0100009320003223034A14F0F8FF13BDC046BD5F0000D1020000F0B587B00400FEF727FC0500200002F022FF02900D
:405D000003F0A2FB049000F024FE2A00059045321378022B4AD80133DBB2137004221E000192022B04D0032B39D1012607330193200004F0DFFF08352B00070003953E207D
:405D4000185E3100C01B15F001FAC01905B2AF4203DDFEF7F3FBFFF7ABFF1949049815F06BF92A00174B06003900200005F0F8F8039B3E229B5EBB4215DD029BDA89019B04
:405D8000002153431A000120724303F07BFB200005F0D8F8059800F0E0FD07B0F0BD012302260193C4E7029B1A8AE8E7FEF7C6FB0400FEF7C3FB044BE25A044BC252E9E75A
:405DC00040420F004D5F0000C80A0000CA0A000010B5FEF7B7FB48300378002B0ED00020FEF7A6FB07F0E6F8FEF7B0FB044915F00AF8FEF7A7FB00234830037010BDC04661
:405E0000D102000070B5050000F0A3FD0400FEF795FBFFF7DDFF0020FEF78AFB04F070F9034B044A2000EA5000F097FD70BDC046C80A0000A00FA00F70B506000020FEF766
:405E400077FB040000F085FD0500FEF777FBFFF7BFFF200004F080FE200005F099F90022024B2800F25000F078FD70BDC80A0000F0B585B00F0002920600FEF763FB00903E
:405E80000020FEF755FB040000F063FD0190200004F092F900281DD01F4BF752FEF74EFBFFF796FF3900200007F024FD0500200004F020FF0390200005F04EF9002802D1D5
:405EC000200005F065F9039B9D4208D1124BF25A124BF252019800F040FD05B0F0BD029B002B0DD10C4BF35ABB4203D9FEF726FBFFF7DEFE29002000094A05F032F9E9E7D0
:405F00000022009B0098453308301A70C5872000FFF7ECFEDEE7C046C80A0000CA0A0000255F000010B5FEF709FB0400FEF706FB044BE25A044BC252FEF700FBFFF748FFBE
:405F400010BDC046C80A0000CA0A000010B50400FEF7F4FAFFF73CFF2000FFF7C7FE10BD70B5040000F0F5FC05000020FEF7E0FA04F022F9002805D10024280000F0EDFCF3
:405F8000200070BD0020FEF7D3FA0122002106F0DBFE094B0522E15A10F039FC0028EBD00020FEF7C5FA05F0D7F8041EE4D0FEF7C5FAFFF70DFFE0E7C80A000010B5FEF75A
:405FC000BDFAFFF705FF10BD0822054B002800D00422002901D15A6470471A64FCE7C0460001044010B50400FEF7ACFA2100C06A02F024FE10BD0000F7B500236A46466BAF
:40600000D371184BC76AF618300010F045FC002802D000252800FEBDFEF790FA124BC55C002DF6D13B6810241B0500D4083C82239B00FB58DB05DB0DE41AA4B2002CE9D073
:406040006B463000D91D10F03DFC0028E2D06B46DB79013CA4B2002BDCD0902292000500BB50EBE7FC040000F9070000F7B54468FEF764FA8568FEF761FA0178280002F026
:4060800007FD0523FA4E0090727FFA4F5A43062100200192E55903F027FA411CF02014F0CBFFED0AED020543E5510621343F0020E55903F019FA411CEF4814F0BDFF01994E
:4060C00014F0BAFF6D0A01386D0205430621E5510020E55903F008FA411C302014F0ACFF5423FA215843890014F0A6FFE34B00031D400543E551737E012B00D03CE2802357
:40610000DF495B01625813436350DE4D06210020675903F0E9F9411CF02014F08DFF05236421584314F088FFD74A0138062106050020174003F0D8F9411CCF4814F07CFF87
:40614000019914F079FF3E4306270338800206433E436651CD4E39000020A55903F0C4F9411CF02014F068FF05236421584314F063FFC54A01381540000539000543002032
:4061800003F0B2F9411CBC4814F056FF019914F053FF0338800205433D43A551BC4E39000020A55903F0A0F9411C302014F044FFFA23FA21DB005843890014F03DFF6D0A4D
:4061C0006D020543A55139000020A55903F08CF9411C302014F030FFFA23FA215B005843890014F029FFAB4B80021D40AA490543A5516358A94AAA4E1A40AA4B0198134376
:4062000063507F23A55915219D4314F015FF0543A5511421019814F00FFFA559A24B009A00031D400543A148A55103322358D27F9F4906000B40D1030B432350009B2158D0
:4062400034331B78090109091B070B4323500F209849009D63580135ED7F83432B43350063500099A35932310E788343334363510099914D04316359C97F83430B43635119
:406280006059F025009BA84335331B788A4D1B0103436351894B8A4DE058009B28400233DB7F854D5B030343844823500098635933300078834D2B40C5052B437E4D635157
:4062C000814D63593B436351804BE5583D43E550022800D858E1022900D85FE1022E00D862E1022A00D869E18021794A8902A35878489BB20B43A3502358774A9BB20B43FF
:406300002350A35875499B0A9B020B43A350744A744BA15800200B43A3508023724ADB04A1580B43A350714A714BA1580B430121A350704AA3580B43A3506F4B0531E75867
:4063400003F0D2F806210600002003F0CDF806210090002003F0C8F8411C302014F06CFEFA21664B8900584314F066FE013805036348711C0740302014F05EFEA723FA2109
:406380005843890014F058FE3D4306214706002003F0AAF8009A060001321100302014F04BFE7823FA21FF335843890014F044FE0138711C2F434500302014F03DFEFA21BC
:4063C000504B8900584314F037FE000507433D438027494BFF052F43E750C023D82128489B052258C900134323506358464A474D1A40D8235B0113436350454B4549E25805
:406400001B4E114082220A43E250E25842490A40E250E25841490A40E2508C2280231201A1585B050B43A3500A233D4AA1580B43A3503C4A3C4BA1580B43A3503B4A3C49C1
:40644000A3580B400121A35063590B43635133000833D87F374B38495843F31DDB7F6759594314F0E9FD0321344B80001F4067E0380500203422000080BB0000FF0FFFFF2D
:406480001C22000010220000800308F81422000038220000FF03FEFF0422000001C0FFFF0C22000054070000FF0F00F050210000FF7FF8FF4C210000382100003C210000E5
:4064C000FF1FFEFFFFFF7FF89C220000A02200005C210000442100009422000007020000242200000000C05F2C210000302100000080840134210000202200001E0200002C
:40650000810F08E071020000FF00FFFF28210000BC08000040FFFF7FFFFFF0FFFFFFFF9F1C21000020210000000004C824210000FFFFFFFE807D02008813000003FCFFFFFF
:406540002B4A07436751A3588B4302390B43A350717E012938D12749274A63581A408023DB001343602263502449635893431A00202313436350F7BD022B00D0C5E58023DC
:406580001F499B016258BEE5022907D88521890160581C4B80B2034363509FE6852189016058194B80B2F6E7022A07D81349174A63581A40164B1343635095E60F49134A9F
:4065C00063581A40134BF6E71348144A23581A4080231B021343622223501148235893431A002023134323500229C4D0B3E7C0460C21000050210000EFFBFFF8542100008D
:406600001C2200000000767700007675FF0300FC00DCCD0100DCC50138210000FF7CFFF73C210000F8B501217A4A04000BF09EFD0020FDF77DFF03F0C5FD0120FDF778FFD5
:406640000726FFF713FD0523734D744908276A588020B24313436B50C023DB00EA5800053A43EA508022E95812040A436C49EA506A5802436A50C0216A4A8901A858014396
:40668000A950A95803200B43AB50062109230022FEF7B4F90923002206210220FEF7AEF961496248624A0B581340872213438C220B5012018B588022520513438C22120166
:4066C0008B505C4BCA583A43CA500A58B2430A508C221201A9588022D20411438C221201A950A9588022120511438C221201A95029584F4A114087221143802229500430E7
:4067000029585205114329501F204B4A516F814351678832116881430800162101431160EA5846490F200A40EA50EA5844491140E02252040A43EA50EA5842490A40EA50E5
:40674000414AA95881430E43E021AE50A85889010143A9503D4906206A580126520C52046A50EA583A490A40FF211743EF50394B0227EA588A43EA50EA5837490A40EA50AB
:4067800036490022FEF7EAF92178A06802F06DF90A21C08E14F050FC314B85B22178A0686D08ED1802F061F90A21C08E14F044FC81B2280014F040FC2A4D030031006063BE
:4067C000A563E66327642000274A0BF0CFFC31002800264A03F076F8636B2800591EF340FC3081650365224B0336E5500433E750204B3900E65028001F4A02F0EBFF8023EF
:406800008022DB00AB602B68D2041E432E60AA60F8BDC04658D7010000000B4068210000382100006021000000000A40BC08000078FFF07F0C21000000FF0B40FFFFC3FFAA
:40684000FFFF3FFCFFFFFFC31021000018210000E1FCFFFF14210000FF7FFFFF00000440005307000000094067D7010098CC0100140700001C070000E8CB010070B5040083
:40688000FDF760FE05000020FDF752FE02F059F923004A331B7806002178A068012B13D102F0E3F8048A737E012B0BD1A86BFEF701FA2885F538FF38031C80B2A04200D97B
:4068C000231C9CB2200070BD02F0CFF8C489EAE770B50120FDF72CFE9426002390254468B601A3512D016259033313436351322002F026FF0823625932201343635102F0D4
:406900001FFF034B0348A35102F01AFF70BDC046200004008813000010B5074C002805D0012002F06BFD0023236310BD80231B06236302F063FDF8E70000034000000000EB
:406940000230800803D00138FDD1C046C046C0467047EFF3108072B6704780F31088704710B5FDF731F8002010BDFEE710B502F0F1FE10BD704710B5FFF7FCFF10BD70478F
:4069800070B5FFF7FCFF00F03FF8C0221649174815F082FF0123164A11680B431360BFF34F8F144B1448834211D30020134B14498B4217D3FCF7CEFF1C68910064585D68DA
:4069C00001326C5099688A42F6D30C33EBE70022F8E71D689400605101325C68A242F8D30833E5E70022F8E700380000000000200000104058E4010064E4010064E4010011
:406A00006CE4010070470000034B044A10B59A6372B6FFF7F7FF10BD000003406588EDAC114B10B59C6A02F00FFD01232406A40FA3405B081818E04014D00C4B441E186075
:406A40000B49200014F0F8FAFA210A4B013018708900200014F0F0FA074B01301860074BC003186010BDC046000003407405002040420F00800500207C0500207805002041
:406A80007047E0235B00C258B72310B5DB00D058C9B214F0ECF910BDE0235B00C258B72310B5DB00D058C9B214F0ADF910BD000010B50378042904D1054AD15C10F0A7FD66
:406AC00010BD0329FCD195300178014AD154F7E74428002013B5E024640004590498D2B20090B720C000205814F0F2F816BDB62310B5DB00C1586A2004F00EFA10BD10B501
:406B0000040000F0A9FA002802D0200000F0A4FA10BD10B500F0D0FA012010BD30B5CB798C788FB07F2B22D91A255B061B0F01335D43CA88D205D20DAA4218D9097803AA1A
:406B400011700F49547051800F210B40DB0075310B43D3700B4B773993601B2313730A4B0093012310F078FD01200FB030BD02239C43092CF8D0002212210092013BF1E713
:406B80000084FFFF28290020B16A0000F8B504000D0017000678232914D8080014F02EFA9D391739171717171717392F17171717175F5317955376171717391917178B17EF
:406BC0001717171F2F2900D17BE039293BD000264BE0454B30001B68DB689847F7E7F8235B00E25C414B9B5D9A4202D0200000F0D1F9F8235B00E35C3C4A9355E7E70123D7
:406C0000220074321278002A09D0002B07D1152DDDD0B723DB004B21E05814F0F4F8012D13D1200000F054F90028D0D1702373432F4EF618423633785BB2002BC7DB20009B
:406C400010F0E1FCC3E70023DAE7032D01D01A2DBDD1B623DB00E05806F07EFDB7E770237343234EF618473636783A002900200000F09CF9002808D1002E06D11A4B3A0038
:406C80001B68290020001B689847F8BDF323D2225B00E05C773BFF3B734315495200CB183B33012803D901211970A1548FE700261E70A654D9E711002000FFF72FFF0600C9
:406CC000D3E73000FFF7DCFE81E770237343084EF61801234936337079E7B623DB00E05803F03AFF73E7C0462C2900204628002048280020E0235B00C0584B1E994110B596
:406D000000222431FFF742FF012010BD70235843014B0830C01870474828002070235843014BC0187047C04648280020B623F422DB00C3580649520099500649043A995062
:406D40000549083299500549043299507047C046996A0000D56A0000836A0000EF6A000010B504000F4B00201B689B68984700F077FF0D4BE3581A006832127869335142E2
:406D80004A41D321490062541B7808495A425341A622FF32A354B623DB00E258D6235B00D15010BD2C290020AC050000F56C0000F8B5B625170004000E00ED004059002142
:406DC00005F0ECFE3B0032006059002105F026FF012203000021605905F057FEF8BD0000014B19607047C0462C29002037B5C8210022890004000578FFF7DAFF002810D184
:406E0000B623DB00E05805F0C1F8FA235B00B720094AC000009221005022205813F058FF37BD2800FFF77AFF082342300278134303706423EBE7C0463D6E0000F7B50C0032
:406E40000F78C821002220008900FFF7B1FF002839D13800FFF762FF4230037808261D0038003540334216D0FFF758FF42300378B3430370B623DB00E05805F087F8FA2310
:406E80005B00B720114AC000009221005022205813F01EFF16E0FFF741FF7F22B62642300378F60013400370200010F0ACFB2900A05905F0A5F8A059012105F0A1F8200032
:406EC00010F0D8FAF7BD6423DBE7C0463D6E0000002310B5027808490848120189188218D05CCC5C844204D30133102BF8D1002010BD0120FCE7C04650290020302900208F
:406F0000030010B5D533FF339A7A0400002A02D01B7E002B07D12078FFF700FF02234230027813430370200010F05CFB10BD000073B50D000678040010F061FB134A330150
:406F4000D218515D1248FF2904D0C618725D0132D2B27255C3185B5D013120008B4211D2002510F048FB2B002A0005212000009510F072FBA84204D02A000421200010F031
:406F8000F7FB73BDFFF7BCFFFBE7C046502900203029002010B5037803481B0110220021C01815F095FC10BD3029002070B5040000780D00FFF7B2FE06000020252D09D8A9
:406FC000162D08D8012D14D0854203D0032D17D0122D15D070BD280017380E280ED814F00DF81F0D0D0F0D0D0D0D240D0D0D0D2626002000FFF76CFF002801D00020E9E734
:40700000423633785BB2002B02DB200010F0FBFA032D01D01A2DF1D12000FFF7BBFFEDE700212000FFF784FFE8E70121F9E72300D533FF33597FB623DB00E05805F038FF7D
:407040002000002100F0F4FA7D234236357801209D43BFD10421E4E7F8B5B626E2230400F60080595B00C75825783B68002B1AD0A05901F03FFD0F4A03792D01AB547B6870
:40708000002B05D1A05901F0E6FC838C002B0FD0B623DB00E05801F045FD064A0379551901206B7005E001F0D6FC838B002BDFD10020F8BD5029002070B505000078FFF7FE
:4070C0002DFE022642300378040033420DD003212800064A10F04CFB0F2806D080222378B343237023781343237070BDED6D00000F22030013409B009A40994010B5000996
:40710000034C80000059046894432143016010BD84050020F0B505000226AC7A6F7A64003440013E37403C43970009013C430C4351424A410827524213403340BC43134E45
:40714000240626400078DB063343114A114E800084588059A4058005860D3000A10D240B234318431B0E1F4204D1B14202D9800A800208430123D535FF35AA7C93429B4175
:40718000054A5B42DB0510401843F0BDFFFFFFF78829002080290020FFFF7FFFF0B503788FB007930B8907009B059B0D0993002301910D920A93089304933B007C331B7889
:4071C000049A934200D9E5E10A9B002B25D13B00FC33DA69079912038C00AA49920D6250FA219B8BA84D9B05980D60514900504313F06EFCA54B62591851099B934200D2B1
:4072000063513B00EC331A88A14B38001A51012200231100FFF77EFF0C900798FFF776FD0C9B03603878FFF771FD0D9B0100380098470FB0F0BD049C3B784434A400039352
:407240003C19E67AB3090593049B5B00FB180B93EC331888029B80059A1C019B92009918CB78860D9B09012B00D183E0022B00D110E1002B43D1019B1421D5582D03AD0DF4
:40728000280013F025FC2B1A0693059B2818012B42D0022B28D0002B31D1A3681B039B0DAB422CD1238931009B059B0D9E4200D21900029A019802329200125A9205920DEC
:4072C00091421CD8039A704992005350FA21039B49009C006B4BE5506B4BE058684313F0F7FB6A4B185118E1A368069A1B039B0D9A4204D363899B049B0D9842D2D9029B95
:407300000133DBB20293019B029A5B78934292D8049B0133DBB24FE7A368069A1B039B0D9A42ECD363899B049B0D9842E7D8FA2520896D008005800D1100684313F0C8FB76
:40734000040028000699704313F0C2FB06000200A04200D22200029B019902339B005B5A9B059B0D9A42CAD8039B474A9B00069D9C50ABE7019B4D88D358059AAD041B037A
:40738000AD0D9B0D012A5AD0022AB8D1A2681203920D9A42B3D863899B049B0DAB42AED3FA21208949008005800D684313F090FBFA21040030004900684313F089FB060073
:4073C0000200A04200D22200029B019902339B005B5A9B059B0D9A4291D8039B2A4A9B009C50039B9C00274BE550294BE650264BE258264BE250079B244A9B009C58089AB9
:40740000A24200D97BE73A001021FC32D27F0A4205D01C4A08949B58642B00D16FE70B9B029AEC331B88511CDB0B00223800C9B2FFF770FE01230C9008940A935FE7A2689E
:407440001203920D9A4200D959E763899B049B0DAB4200D253E7238931009B059B0D9E4200D21900029A019802329200125A9205920D914200D942E7039A034992005350B7
:40748000AFE7C046782900208829002070290020802900204B889B049B0D0693019BD558059B2D03AD0D012B3AD0022B00D026E7A3681B039B0DAB4200D920E76389069AAC
:4074C0009B049B0D934200D219E7208932008005800D864200D20200029B019902339B005B5A9B059B0D9A4200D908E7FA216843490013F0EDFA039B27499A00274B985072
:40750000049B44339B00FB181B899B059B0D5350039B069A9C00224BE250224BE6506AE7A3681B039B0DAB4200D9E8E66389069A9B049B0D934200D2E1E6FA2320895B00C4
:407540008005800D2900584313F0C2FA0400FA2040007043290013F0BBFA06000200A04200D22200029B019902339B005B5A9B059B0D9A4200D9C2E6039B08499A00049B1D
:4075800044339B00FB181B899B059B0D5350024BD450BDE70023B5E688290020702900207829002080290020F7B5050008780C00FFF7B4FB0600482D02D0492D0CD0F7BDFB
:4075C000B723DB00E058492113F01DFCB623DB00E05805F0EFFCF2E7002220000E49B727FFF7E6FBFF0000280CD14821E05913F00AFCB623DB00E05805F0DCFC20007368C2
:407600009847DCE7054B2A00009321000123E05913F05EFBD3E7C04688130000A9750000B62310B5DB000021C05805F07BFC10BDF0B5040085B000780D00FFF76FFB070093
:40764000FFF787F903902000FFF7EAFFB623B726DB00E058F60005F0ADFC49224821A05913F0E5FB002D19D0EE235B00E35C002B14D0B623DB00E05805F056FC7D600B4DBD
:40768000FA2348222100A059009513F021FB012349222100A059009513F01AFB044BBB866B46187BFFF759F905B0F0BDA975000088130000037810B5002B04D1B623DB00F4
:4076C000C05805F031FC10BD037810B5002B04D1B623DB00C05805F06DFC10BD70B5040000780D00FFF71AFB433003780126002B0FD1B623DB00E05801F02EFA0322837A4C
:407700000B361340022B04D093420DD05A1E9341DE1C2078FFF7FAFA06712078FFF7F6FA01002000A84770BD2300D533FF339B7C0426012BEDD90C36EBE7F32370B55B00CE
:40774000C35C04000D000426012B00D90C362078FFF7DCFA06712078FFF7D8FA01002000A84770BDF8B50700D537FF377B7B04000E00002B13D00078FFF7D0FA55300378AC
:407780000C25002B00D1093D2078FFF7BFFA05712078FFF7BBFA01002000B047F8BDB623DB00C05801F0D8F9837A0C259B069B0F022BE9D0032B03D05A1E9341DD1CE3E78C
:4077C000BB7C0425012BDFD90C35DDE7014B19607047C04690290020F8B51F4B0D001A68FF24002A29D01388E63C8B4225D3D38CE6348B4221D8938A8B4220D20021F53C0A
:407800000B005800105ADEB2A8421FD88E4219D0124905245B185B009F5A0521381A13F00BFC664381B20F36F4B2002905D07D1BA8B213F001FC2418E4B22000F8BD1324EF
:407840000A21DDE705244C431434F6E70133D8B28442D6D2FF24F0E790290020FFFFFF7FF8B50E0004000778FFF773F8124B0500DB199F5D06213800FFF73AFC142001F020
:407880005FFFB623DB000022E058012105F034F9060000213800FFF72BFC0A2001F050FFE8B2FFF75AF8054920007143090A89B2FFF792FFF8BDC0467CD7010088130000AF
:4078C00010B5022000F056FF041E04D001220020110000F03DFF200010BD0000F0B585B00193B623DB000600C0580D00039201F033F98388002B02D1002005B0F0BDB62396
:40790000DB00F058EC8801F027F98388A342F3D12B79A988DB06DB0E00932B68C9055C04B623DB00F0580F0F01F016F9F0228388BF4E52007380AB88BE491A4080231B011C
:4079400013433288640F0A4013433380009B013CA400581EE4B2132800D967E113F062FB1400340049005400660075008E00B800EA000201140166011A013B017F00660141
:407980007F00660144014D01002C00D095E001F017F87060002800D03DE12F230334B36002381F21A24A13788B4300990B431370831C03D001340230E4B25060039B012054
:4079C0001A60019B1C7098E7002C76D100F0FEFF08220100301D13F072F800F0F9FF0100300008220C3013F06AF87461B46107346BE0042C61D12B7A532B5ED130000830B1
:407A000001F018F80020CCE7042C56D12B7A522B53D1894B00201B68033C1B699847831CBFD102200023019A137066E7042C44D12B7A4A2B00D0F0E07F4B80481B681B6945
:407A40009847831CEDD0033CABE7042C35D12B7A502B0ED1FD2000F08DFE002802D0012403209EE701221100100000F071FE0124C8E7FFF725FF0028F9D1F0E77B1E0293DE
:407A80006B461B7A0A2B18D80B2F14D0182C14D11820290078436A4B103880B222000831C01813F00CF80122029B66499A400B8893430B80B5E7102CEAD018227378012476
:407AC00093431A001023134373700220404268E75D4F3B78DBB2042CEFD1002BEDD12B7A462BEAD1574E3388002B00D098E06B7AAD7A0A9A2D021D432800544900F056FE86
:407B0000534B821C0CD1012208213A70514A053011709D4286D1504A13781C43147081E74E4A32809D4203D14B4A13781C431470012436E77B1E0A2BBFD818223900514391
:407B4000C9B20B2F00D1083A3D4B1039C9B2C918301D12F0B4FF002CAFD105340B2FB4D00724B2E7042CA8D12B7A462BA5D1A87A6B7A00023549184300F082FE033C0028B9
:407B800000D00EE720000CE7042C96D1287A00F0BBFD58E7082C90D16B7A2A7A1B02A87A1A43EB7A000410431B0618436B7B297BAA7B1B020B43E97B120413430906194386
:407BC000802342189B029A4200D376E712F066FF063C307179E7002C00D06EE700F012FFB4607060033470E7002C00D065E7EC2374601B780234337167E77C1EE3B2012B30
:407C000011D800F01FFF210109181022301D12F056FF052459E7022457E701240920C0E601240520BDE601240720BAE60020F9E60C2B00201FE6FFFF2C2900204C4200003E
:407C4000002A002094050020082B0020082A0020FF01000094290020B82B0020FF070000F8B5B626F60004780500805900F07CFF43880E4A042B16D9043B9B081355A859A6
:407C800000F0E5FE0700A85900F06EFF8088084B0430A2003F18D7500023064A1355064A6400A352F8BD0023E8E7C046282B00202C2B0020402B0020342B002070B5047817
:407CC0000D4D60002D5C0020042D0CD90B48A4002458E68820788E4206D104388008187001200434146070BD2D1AEDB22418002DEFD12800F7E7C046342B0020382B002088
:407D0000F0B5002789B0060000780D000592FFF705F804AAD772F3225200B25C3378039202002D3217708E4902922A8904000A408021079709028A4200D0CEE0AA68026120
:407D40006A7A3B30029052060778920FD0B2391C874200D9111CCAB20492029A3F27117021002C310291012102980170207C07408020404238432074E620FF30305C002834
:407D800003D00398884200D89EE0697801294DD1287AC006C00E0138052847D813F02EF903587646468F0B206E4904AAC95C80180170FF206D890002854237D1002935D069
:407DC00002989B000170684827001D5800230795103798002A5801333A50D8B28142F8D8049B002B1CD1614D6069E37D284038259B06070E5B0F3D40182D00D1049B5C4A4B
:407E0000DB06104018431B0E283B5A4253410433994202D922002C321370564B184060613F22237C1A404023134323742300032260213B331B781A40637C52018B4313432C
