:4000000000400020590B0000FD010000FF01000000000000000000000000000000000000000000000000000000000000FD0100000000000000000000FD010000FD01000004
:40004000FD010000FD010000FD010000FD010000FD010000FD010000FD010000FD010000FD010000FD010000FD010000FD010000FD010000FD010000FD010000FD010000A0
:40008000FD010000FD010000FD010000FD010000FD010000FD010000000000000000000000000000000000000000000000000000000000000000000000000000000000004C
:4000C00000000000000000000000000000000000000000000000000000000000000000009400001069770000C11180310000000000000000000000000000000000000000F9
:4001000010B5064C2378002B07D1054B002B02D0044800E000BF0123237010BD000500200000000090220000044B10B5002B03D00349044800E000BF10BDC046000000005B
:400140000405002090220000402292029A1A92467047C046174B002B00D1134B9D46FFF7F3FF00218B460F461348144A121A01F0F2FF0E4B002B00D098470D4B002B00D04A
:4001800098470020002104000D000D48002802D00C4800E000BF01F0B1FF2000290000F047FD01F095FFC0460000080000000000190C00000040002000050020DC14002061
:4001C0000000000000000000BFF34F8F034B044ADA60BFF34F8FC046FDE7C04600ED00E00400FA05034B1A7801231A4201D1024A137070470907002058050020FEE7FEE71A
:4002000070B51D4B1D4CE15800292AD00C3BE1504B0521D5E26D1A4DE36D52042B600023520F93421EDB07240F222B68580A20401A40012A02D11B0B23420DD0114A124B4C
:400240001478002C02D01C78A04205D001241470402218700D4B1A608B0502D501220B4B1A6070BD1800183080002658013398002E50DBB2D5E7C0460C05000000000A406B
:400280004C0A0020080700206C0A0020440A002030B5002915D001230F250B4C41185B420278013053401A092B409B001B595A4013092A409200125953408842F0D1D843CC
:4002C00030BD01235B42FAE73C22000070B5437902791B0281791A43C379090411431B0604000622194350D042780378857812021A432D042A438025C378AD021B06134394
:4003000058180622A84240D21800FFF7C1FF220023005932117858331B780902194323005A331A7801331B78120411431B0606220B43834229D1617B207BA37B0902E47BB5
:4003400008431B04034324061C43AC421DD2637820780F491B0203438B4216D12000E179A279090211430C390C30FFF791FF617A237AA27A09021943E37A120411431B06A7
:4003800000220B43834200D00632100070BDC04646490000030010B50720012B09D10748FFF794FF064B04221978002802D19143197010BD0A4306201A70FAE780FF0100D6
:4003C000380A00200B4B00209B681A0F11070A2A0AD0F0221206914207D1074A9B18132B05D8064A9B00985870470548FCE70548FAE7C04600001040FFFFFF0F84210000E8
:4004000023005000FF0052000020074B1A6B824208DA064A98581C238000034004485843044BC0187047C04600000340080F000040420F0000366E01F8B5012403222600A1
:400440000B4B9D6A9F6AAD09996ABF0815401740AE40BC400023114202D1FFF7D5FF03006008C018F84076088019E840F8BDC0460000034010B5FFF7DFFF041E12D0013C5B
:400480000949200001F098FDFA21084B013018708900200001F090FD054B01301860054BC003186010BDC04640420F0084040020800400207C0400201C4BF7B58200D6585F
:4004C000182343431A4AD318C22292009B8AB4589BB2E405E40D221C082C00D9082218274743134D1C00AC463D0092B20A706544991889B20195A5B2A9420CD800248B4235
:4005000000D8141C18225043094A1B1915189BB20120AB82FEBDD025AD007559AC466746019DAD682F550134E5E7C0462C220000D8090020764B8200F0B5D458002385B0D4
:4005400002AAD371734A0500A6580222FF32164200D083E00127F3063CD5182343436E4AD31801931B79042B10D002ABD91DFFF7A3FF0521019B38009A8A197192B21B6973
:400580009847FC23012207001B01E25018236B43614AD31802221A7100229A82812380229B00E15852020A43E250E2585B490A40E25001225A49635893436350F8231021BC
:4005C0001B01E250574AA3588B43A350F42330221B01E250730600D473E018226A434E4B9B181A79022A40D1626ED20639D504210022197110001B699847002835D0F822B5
:4006000001231201A350464AA350F423302245491B01E2506058203A02436250424A515D012200294AD1E266E65001263F4BE75837424CD10120F8231B01E7503C4BE658C6
:40064000F30704D502AB2800D91DFFF735FFFC231B01E65000280DD005B0F0BD1E001F00B8E705221A71002FCFD10223E366F4231B01E6501820236868435B005B082360F7
:400680000223254D264A2D182B710023F821AB82A3500122102552422248090162502158A9432150F4210901625080316250E366802322681B0613432360CDE71D494A55B1
:4006C000B2E7F4231B01E650002FAED1D2E718226A43114B04219B1800221B69100098470028A7D10E4AA358B343A350F8231B01E650812380229B00E15852020A43E250AB
:40070000E25806490A40E2500223E36693E7C0462C2200004C0F0000D8090020FFFFFEFF880F0000480F00008E0A00208C0F0000CC0F0000920A002010B50320FFF7FAFE73
:4007400010BD0000084B03219A6A100008400A4206D01A6B002A04DA00209A6A8A439A6270470248FCE7C0460000034003004A000321064B1A6B8A43110002220A43102149
:400780001A631A6B0A431A637047C04600001040F0B501240A688440244B002A43D15C644A6803279446072216004743BE409D68B54366463240BA4015433207D20F82402D
:4007C0009D609D698700A5432A430F25AC46BD406646174C9A6122684000AA4315000A7A3240BA402A43226003248440DA680C3EA243CC682640864080241643DE600A69D8
:4008000064041206986822400A4C204002439A604A6980215206890498680A40064901400A439A60F0BD1C64BAE7C0460003044000030240FFFFFFFEFFFFFFFD044B1B6860
:40084000DB0703D5034B10308000C1507047C04600001040000000208023F0B5C9B000909B02984251D2802208A8520001F06AFC274B06AE0693FF23264D7360264BAE60E6
:400880006B60C046FFF79EFD041E3BD101F0D9F9224B234F029302AB01900397AB60214B6B60C046FFF78EFD80221F4B1206041E1A6324D11D4BAB601D4B6B60C046FFF776
:4008C00081FD041E1BD11B4B009AAE6033603368100A00041843184B30606B60C046FFF771FD164A04AB04920597AB60144B04006B60C046FFF766FD002C00D1040001981C
:4009000001F0A3F9200049B0F0BD0E4CFAE7C046B6D700000000104004000080B6E900001C0500201600008000000340B6E8000015000080B6D8000005000080B6EA000023
:40094000170000802100520010B5104A030012780E20002A18D00E4A073812889A4213D80C4A12889A4203D20B4A12889A420BD1802207209200934206D21802FFF76CFFBE
:4009800040B2002800D0052010BDC04609070020880400208A0400208E040020F8B5444D69780C0902D000242000F8BD01284BD1022A20D83F4F404E3C603460012A10D05A
:4009C00002290CD13D4B2A781B889A42EBD23C49083352183A605B1801243360E4E70029E1D10022AA562B78002ADCDB354A9B183B60334BF0E7023A93B200291BD0040093
:400A000002290DD12D4A29782D4812880818521A9A4200DD1A002C4992B201F093FB01242A4B1B78D9B2002BBED190222800520001F091FBB8E7264A264912788854234A83
:400A40001070254A1380EAE70028E9D119490B681C1EE5D0184A040012689342E0D2D21A92B2002ADCD0101C082A00D90820C2B217481A4C00788000045982208000265883
:400A80000820801B8126C0B2B600824208D20120A05190209A188000934205D10B60BEE70422A2510200F4E71E7801332650F3E7100700203808002034080020920400209E
:400AC000C40800203C0800201207002030080020320800208E0A0020D60900202C22000010B5034B1B68584301F0A2F810BDC04680040020F7B5040001200F001D000192F3
:400B0000FFF7EEFF4021114E0F43335D29030F435B021F4300230E49CF609D420ED880230C4A9B02116803200B431360FFF7D8FF0722335D013313403355F7BD01989A0016
:400B400080581A1D920088500133E6E78D0A002000000A40C4000A401923244970B54A6D1A40234B102A1BD000221A60214B8B6372B6C0222049214801F0E4FA0123204A4B
:400B800011680B431360BFF34F8F1E4B1E4883421ED300201D4B1E498B4224D3FFF7DAFA1A68012AE2D100201A681A4A126806CA186081F308889047FEE71C6891006458B0
:400BC0005D6801326C5099688A42F6D30C33DEE70022F8E71D689400605101325C68A242F8D30833D8E70022F8E7C04600000340780400206588EDAC0000000000000020B0
:400C0000000010409C220000A8220000A8220000B022000080FF01007047000010B5034B1B78584301F004F810BDC04684040020F0B589B0FFF79CFD8023F74D1B062B635D
:400C40002B6B002B1FDAFFF7DFFBF44B98421AD000F0F7FF0022F24B0400EA50F148F24BF249C35CDBB26B50F1231B01EA50D3239B00C35CEE4ADBB23220AB5000F0D8FF59
:400C8000200000F0E2FFFFF75DFD0C22E24EB36A9343B362B36AB4329343B362FFF7EAFB3022B36A9343B3628023F26A1B061343F362336B002B2FDAFFF7A6FBDD4B984234
:400CC0002AD000F0BEFF0022D54C0500DA4BD5483251C35CD549DBB27350F1231B01F250D9239B00C35CD24ADBB2B350322000F09FFF31003259072605230F00B243134394
:400D000032200B5100F094FF06233A592800B24313433B5100F099FFFFF714FD0C22BE49C1248B6AC54E93438B628B6AB43293438B62FFF71DFDFFF79DFBC021C04BC14A20
:400D400089001A605858C04A304010435850BF48A40018601868BE48862718601859BF00304002431A51BB4AC2201A601A68BA4A80001A60A0221D58D20035402A43C32579
:400D80001A50B64AAD001A601A68B54A09381A605A59FF38324002435A51B24A9E251A601A688022D2051A601E58AF4AED01164035431D508125AD48AD0018601868AC48A0
:400DC00018605859104008435851AA48043518601868A9481860585910405851A748043518601868A6481860B8205E594001164030435851A348842618601868A248B6005B
:400E00001860BC209D598001154005439D519F4D04361D601D689E4D1D609D59154005439D519C4D1D601D689B4D1D608025DE596D0016403543DD51984D07271D601D68A1
:400E4000974D1D608725AD005E59164030435851944804351860186893481860CC205E59800116403043585190480126186018688F481860892080001D582A4011438D4A20
:400E800019501A60092200201B688B4B8B491A61043A5E629862DA62033A9A6392191A639219DA633C321A643A3A5A643B329F64834DDA64FFF76CFC30008249FFF768FC8F
:400EC0002B591B021B0A2B517F4B1B68334203D038007E49FFF7B2FC80232B60FFF7ACFA7B4F0100380000F0E1FEB722794ED200B7505722784900230A708021774A4900E1
:400F00001180774AD1393370118062B6754C76482370FFF7DBF9002801D0042323700823227872491343724A237013689BB28B4200D029E100231360227801331343237099
:400F40006C4C37782368C1215B005B082360802309221B06C90023606358642093431A00012313436350FFF759FE9622624B52001A60624B624A1A60C022D200A3585B006A
:400F80005B08A3509032A3585B005B08A3501823A1580B435B49A35063585B4A1A4090231B021343594A6350A35859495B0C5B040B43A350002F00D116E2DA213822C90064
:400FC0006358012093431A001023134363505149514A63581A40514B13436350FFF780FDC022D200A1584E4B0B43A35000224D4B1A604D4B4D4A1A6001234D4A11680B43A1
:401000008E2113604B4B4C4AFF311A604B4A13685B0A5B0294E0C0460000034000366E01080F000000F0FF0F650300000C0F0000180F0000006CDC027D030000FF0000FFFD
:40104000000001404000004000BF5D0040FF00804100004041FF00804200004042FF00804300004043FF0080FF00FFFF00FF00800100004001FF00800200004002FF00800B
:401080000300004003FF00800400004004FF00800500004005FF00800600004006FF00800700004007FF00800800004008FF00800900004009FF0080FC0001400022000044
:4010C00000E100E0D421000000001040191C0000DC100020980A0020D40900209204002090040020380A002080FF01004C4200007804002000000A40D0000A40D4000A40F2
:401100000A4041010C210000FF0FFCFF142100005C500100082100001EFF79FF210084000A003E00A8000A40BC000A400B410000C4000A40B4000A400F020000E4000A40D1
:401140000B431360002F0CD18027E14BBF01DF67BFF34F8FBFF36F8F0D20DE49FFF76EFB2F60A022DC4BD200A3500832A1580B43A3507C22D949635893431A004023134301
:401180006350012303932FE0247804232000116818401C4200D0D3E6D14C89B2D14BA1420BD1188019888BB2002912D1012313601923CD4A5365FFF707F8CC49CC4C09890D
:4011C000A142EED0CB488142ECD0FA2189001980E8E70024C84A21001470C84A38000092C02200F0BDFD0394C54B03221E600126C44B00211E70C44BC4481A70C44BC54A7B
:401200001A609022520000F0A6FF9123C24CC34A9B00D75820008022002100F09CFFC04B20221B886780A38023003A331A702423FF33E363BB4B2C341A782670BA4B002A04
:4012400000D01A7000211B78B84A0493B84B81201960C1241A668022A40052028000D9661A501A51B34AF42699500122360152429A51B14E049F9951083E9A51AF4E99519A
:40128000083E9A517A00FE273F043A43C427BF001E68DA510822113FFF32FF3FDA510137FF37DA518022120632431A60A44A0126170048373E704B27BC4694446046493F1A
:4012C00007704C20844694446046077017005C3739808E499027116511007F0054310F80984904989165110049310870FE214A3281201170042280001A501A511A59924945
:401300000A401A511A580A401A5042228949FF325A508A4AFA388D499E50FF38FFF78EFA80231B012B60774B1B78002B09D08021754B874A1B7849049B009A5893680B43B7
:4013400093600023902206AE06937360814B724C1B78227063705B074FD580253100AD00E0237D4A81CB81C21000082200F0EAFE2300203306CE06C380239B0063852585AC
:4013800000F05FFC230080227E331A80FF23184000F05BFC01222F21A3791343A3716F4B2F321A806E4B6F4A059313806E4A13806E4A11806E4F3B78002B46D0534D6D4E26
:4013C0006B781B0932D16C4B28781B880638DBB2062800D926E100F0E5FD17002501410025016100E400ED000F226449CB6F93431A000B231343CB67DFE53C4B1D682900B1
:401400002D0AE031ADB2ABE70122AB7813420DD000F017FC0121404B9A798A439A7100227E331A80FF23184000F00FFC0022364B53491B783A70CA54F15C914205D0F254A9
:40144000504A9B009B580122DA662B4B1B78002B00D1E9E001224C4B1A60A9E6012B00D8E0E0AB780524522B1FD1EA78012A1CD10021254B42481B78C154F05C884204D0AC
:40148000F15440499B005B58DA660520FFF7C6FB72B600223C4B1A60FEF796FEAA783B4B502A75D102244F3A1A7000F0CAFB1A4D00222B007E331C702B007F331A70FF2350
:4014C000184000F0C2FB0122AB791343AB71ADE704E100E001020000030601009407000031420000860400200000034080FF010046490000FFFF000058050020E50100005D
:401500000C07002031080020320800201007002038080020BA0800203C08002000F0FF0F90040020D4090020940400208828004000000840480F0000880F0000C80F000084
:40154000D80900209D090000FFFFFEFF390700007C220000380A00204C08002088040020FF0100008A0400208E0400208C04002030080020920A0020D609002004FF0A40F9
:401580008E0A00202C220000780400200907002001211A7805240A4287D00022033C1A7083E7A878FEF7F6FE0230C4B2002C00D13CE77AE70524032B00D876E7AB78462B32
:4015C00000D072E7EB780220012B07D168792B790002C1491843FFF7B7F9033CEB78002B1BD1BE4B07241B78002B00D15DE7BC4B69792A791B88090211438B4200D354E77E
:4016000080239B00994200D34FE78022B2480902520000F02EFB043C47E7002800D144E7072442E7052440E7039B002B00D1C1E6AC4B1C78AC4B1B5DD9B2002B6BD1AB4B1D
:40164000AB4E1D5D06AF002D27D0AD239B00F65880223700D200A74BA74D1740A000164274D129586200511889005E5801365E502958521892009958A04A91424BD9E4009D
:401680001F511C19676046E0802372585B0013430CE0D150012D3ED001250023C0213B70C9009D42F0D17358954A134073500A20FFF7B4FAAD2301229B00F3589B0A134094
:4016C0003B70387863005B198A4AC1B29B000028DFD0D1580131D150D158884B9942D9D9854BA100CD500023E100535052185360844A04211355844AAD001355834A135535
:4017000001227A4B1A55C023DB00F2588A43F250F2581543F550734B1E78734B9B5DDCB2002B00D046E67A4DB7007B59012B13D100F087FAFF237C51184000F086FA714B4F
:401740009C55714B9C55714B9C5533E62A586400A418A4001951DEE77B59402B00D029E600F06FFAFF237C51184000F06EFA694A13685C04640F00D11CE60F210B40012BFF
:4017800009D18023644A5B05136001230D393000FFF7B0F90EE60F2B00D00BE653797F2B26D91079C006C00E0138032800D901E6594A00F0EDFB020D1319584B1360584BDE
:4017C000536000239360574BD36004230F21DEE7554B1360554B53600223F7E7544B136001235360DB18F1E7524B13600123EDE7D188514B994200D0AAE111799788C90667
:40180000FF054E4DC90E4E4A3F0F0491790128680A434C49013C01400A432A60049AA400501EE4B2122800D992E100F0BBFB13001D00370095009101E200F7001601310154
:4018400049016D0175017C01910191019101910191018B01002C00D0F6E02F236C60AB6003340220404227E0002C00D0ECE0E0210822281D00F0FDF9334B34491B785B076C
:4018800002D4334B1968E031280008220C3000F0F0F900236B61AB610724E2E7042C00D0D2E01C4B1B7A532B00D0CDE0294AF233FF33D358AB6000201F222B789343049ACB
:4018C00013432B70831C03D001340230E4B2686023002A007AE7C046C4080020090700208C040020980A00208C0A0020480A002000000A405C05002054050020C409000045
:40190000FFFEFFFF6C0A00208D0A002008070020440A00204C0A002034050020418000FFB40400920000A0F6428000FF0000B4044380B4044480B404B4040000700A002091
:401940000008B4041FE60000380A0020390A002080FF010000F0FF0F042C75D1844B1B7A522B71D172B6834B834D1A68834E1A60834B84491F688023AA59DB001343824870
:40198000AB514B6E814A0078002F24D10F37BB43034302204B66AB59A343AB51AB590343AB518C239B00E9581143E950E9580143E950E9588143E95090239B00E95864205B
:4019C0000A43EA50FFF72AF98023AA591B021343AB51FEF7F9FB0F270130BB43034302204B66AB598343AB51AB591C43AC518E23D8E7042C28D15E4B654A1B7A502B09D1CA
:401A00000221137803208B43033C002B00D053E7117050E70020107001244DE77B1E0A2B12D80B2F0ED0182C0ED1182078431838584F4F4980B208302200C019083100F0DF
:401A400018F9B7E4102CF0D018226B78012493431A00102313436B7003E74F4B1B78DBB2042CF1D1002BEFD1414B1A7A462AEBD19F7A5A7A3F02174338004849FEF764FFB2
:401A8000059B9F42C8D1464A13781C431470C3E77B1E0A2BD8D8182239005143C9B20B2F00D1083A3B4B1039C9B2C918281D00F0E0F8002CC8D105340B2F00D1D1E6EBE64E
:401AC000042CC1D12A4B1A7A462ABDD1304A0E201278033C002A00D1EEE65A7A997A314B09021B88114307388B4200D3E4E680239B00994200D3DFE68022284809025200AF
:401B000000F0B7F82000D7E6042C9DD1184B033C187AFEF73FFCCFE6214B002C94D11B7802342B719DE6082C8ED1114B9868D968802342189B029A4286D200F089F8063CDC
:401B400028718EE6002C00D07EE7EC236C60E6E7074A51680A0C9A4200D02BE4124A0B0A1160E721194010230B4353703EE6C0464C0A00207804002000000A4068080000F7
:401B80005405002000FF0A403CF1FF0F200C200009070020000600200A07002008060020380A00208C040020340500200222044B19680A431A60012219680A431A607047DF
:401BC00010E000E00221044B1A688A431A601A6801398A431A60704710E000E00421044A8000136808408B43184310607047C04610E000E0034A80B2136C1B0C1B040343EA
:401C000013647047000003400122024B5A645B6C7047C0460000034010B5FFF7F5FF024800F030F910BDC046DC100020000000000230800803D00138FDD1C046C046C046A7
:401C40007047EFF3108072B6704780F310887047031E08D0081E06D0180059180023884202D15842C0B27047027801309B18DBB2F5E7002310B5934200D110BDCC5CC45437
:401C80000133F8E770B5084B04001B6C02899BB20D009A4202D06420FEF7C0FF2800FFF7A9FF258170BDC04600000340F7B500230500FF2001331A01AA18D0803F2BF9D1D9
:401CC000FF2300279B00EF54214B224CEF5401232960E26C204E9A43E264204AA263E26C1343E3648023E26A1B061343E362FFF78BFFFFF767FFFA21B7602868890000F0F8
:401D00005BF901380002000A7060E26B92B2E36B9BB29A42FBD0E76B0120BBB20193FFF75DFFFFF743FF02223368934380223360520233681342FCD0E36B01999BB299427F
:401D400000D91343DF1B6F81FFF73CFFF7BDC046FD0300000000034010E000E06588EDACF0B585B0040016001D0000270391FF2A66D0BB4264D003000C330193FFF761FF3E
:401D8000FB239B00E118FF223E2302904889DBB2FF2800D11A004889B04246D1FF218900625C013AD2B262543249625C013AD2B262541A00019B12019A180A9B1581536020
:401DC000039B5681D36063892A4E5D432A4B1560E35C002B1DD1294DEB6BA05D99B2002835D0A5880B00A8B28D422CD211681B1A9BB25B1813601168E388994209D213685F
:401E000020009BB2E380A188E388C91889B2FFF739FFFF229200A35C01270133DBB2A354A35D0133DBB2A35507E0013B5BB21039581CABD10027FF2ABCD10298FFF705FFCF
:401E4000380005B0F0BD802149025B18CEE7A18013680B4A934200D913009BB25918E380200089B2FFF70EFF0123EA6C1343EB64CFE7C046FD030000FE0300000000034064
:401E8000C0FF00000122F0B504003D4B85B0C25403933C4FFB6BA08899B21B0482B21B0C884263D226009B1A9BB20193FF230C3635009B00E318A18002936B8998B2FF2B48
:401EC0001ED0019B2A6805339A4253D92B68019A9B1A2B602B68002B12D1FF22FF336B819200A35C013BDBB2A354274AA35C013BDBB2A3546B68002B02D06B68E9689847E4
:401F0000029B10359D42D8D11F4D2049635D002B17D07389FF2B03D033688B4200D23168029B10369E42F4D1A088FB6B82B29EB21B041B0CB0421FD29B1A9BB205338B42FA
:401F4000A7D889B2E180A3882000C91889B2FFF799FE0023039AA354635D002B04D101220849CB6C9343CB6405B0F0BD802040021B1897E70023ACE7802040021B18DBE7A9
:401F8000FE03000000000340FD030000C0FF000002B4714649084900095C49008E4402BC7047C04603B47146490840004900095A49008E4403BC7047002243088B4274D35F
:401FC00003098B425FD3030A8B4244D3030B8B4228D3030C8B420DD3FF22090212BA030C8B4202D31212090265D0030B8B4219D300E0090AC30B8B4201D3CB03C01A5241E2
:40200000830B8B4201D38B03C01A5241430B8B4201D34B03C01A5241030B8B4201D30B03C01A5241C30A8B4201D3CB02C01A5241830A8B4201D38B02C01A5241430A8B42B8
:4020400001D34B02C01A5241030A8B4201D30B02C01A5241CDD2C3098B4201D3CB01C01A524183098B4201D38B01C01A524143098B4201D34B01C01A524103098B4201D3EC
:402080000B01C01A5241C3088B4201D3CB00C01A524183088B4201D38B00C01A524143088B4201D34B00C01A5241411A00D20146524110467047FFE701B5002000F006F87D
:4020C00002BDC0460029F7D076E770477047C046084B10B50400002B02D0002100E000BF054B1868836A002B00D09847200000F03BF8C046000000008C22000070B50026A8
:402100000C4D0D4C641BA410A64209D1002600F02DF80A4D0A4C641BA410A64205D170BDB300EB5898470136EEE7B300EB5898470136F2E7F8040020F8040020F8040020D8
:40214000FC040020002310B59A4200D110BDCC5CC4540133F8E703008218934200D1704719700133F9E70000FEE7C046F8B5C046F8BC08BC9E467047F8B5C046F8BC08BC17
:402180009E46704701005200FF005200040052000400520005005200FF005200000000000800500009005000FF005200FF005200FF005200FF005200FF005200FF005200F5
:4021C000FF00520021005200FF005200210052002100520001000000040000000F0000000000000000000000000000000000000000000000000000000000000000000000D0
:4022000001000000040000000F0000000000000000000000000000000000000000000000000000000000000000000000000005400000064000000740000008400000000070
:402240006FC75E10DE8EBD20B149E330BC1D7B41D3DA25516293C6610D549871783BF68217FCA892A6B54BA2C97215B2C4268DC3ABE1D3D31AA830E3756F6EF30002044098
:402280000001044000000440000304409804002000000000B4DEFF7F01000000B02200007C0400202100000000050020F70300000000E02EC05D0000180032000002000256
:4022C00000020002130000010800000000000000000000000000000000000000000000000000000000000000000000000000000000000000000000000000000000000000BE
:402300000000000000000000000000000000000000000000000000000000000000000000000000000000000000000000290100000101000000000000000000000000000071
:40234000000000000000000000000000000000000000000000000000000000000000000000000000000000000000000000000000000000000000000000000000000000005D
:40238000000000000000000000000000000000000000000000000000000000000000000000000000000000000000000000000000000000000000000000000000000000001D
:4023C00000000000000000000000000000000000000000000000000000000000000000000000000000000000000000000000000000000000000000000000000000000000DD
:403000004649011200060008E98AF73900000000000000009C044000D001440000000000000000004353445000010C00B40401FA4379707265737300000000000000000075
:403040000000000000000001B40401FA000000000000000300000000000000000000000000000000B40401FA000000000000010000000000000012121E000000000002148D
:40308000000000000007010000000001000000000000040F000000000000000000000000000000000000000000000000000000002C910100C8D00200C8B004009640060044
:4030C0000000000000000000000000002C01C800C8000A000000000000000000000010313C3C3C000000000000000000000000000000000000000000000000000000000014
:4031000000000000000000000000000000000000000000000000000001010000B404000000003F0000000000000000001400000041A000FFB404401800000000000001FA97
:40314000000014002C01000040010000400100000000000000000000000000000000000000000000000000000000000000000000000000000102140A020000000102140A48
:40318000020000000000000000000000000000000000000000000000000000000000000000000000000000000000000000000000000000000000000000000000000000000D
:4031C000000000000000000000000000000000002400F4001801140040011400540108005C010800640108006C0108007C01080084010C009001080098010800A00104009C
:40320000A4011000B401040000000000B801180000000000670013001B000000000000000100000001000100000000000000000000000000D007A406D85900000000000005
:403240000000000000FF000003030000000000000000000000000000000000000000000000000000640250005000000000000000000104505050000007070707030F4432AA
:40328000003C000014001400000007070707304E120000000000000000000000000000000000000000000000000000000000000000000000070707070000000000000000E2
:4032C00000000000000004040404000000000000010046051E02224B0000000000000000000000004300580300000000000000000000000000000000000000000000000047
:403300000F0000009C534936BA6B793FE17A0D434501E8030303230000000000BD3706363A237A3F9AF9A2434501E80303014F01000000009C5349366666763FEC11CD43EF
:40334000EE02DC050301C102000000000000000000000000000000000000000000000000000000000000000000000000000000000000F82AD039C8000000B80B0000983A2D
:40338000204E204E00001E001E000000000000000000000000000000640000006022F401030000008813E231F401D007000000000000000000000000000000000704000092
:4033C000000000000000000032000200000001000100B80B204E1932C800000000000000000000000000000000000000000000000000000000000000000000000000000053
:4034000000000000000000000000000000000000000000000000000000000000000000000000000000000000000058023C00000000000000000000000000000094023C0024
:4034400000000000000000000000000000000000D002A000000000000000000000000000010000000000000000000000000000000000000000000000A00F0A001450000AB2
:403480007D69463C000000000000000000000000000000000000000000000000140244007003F00000000000000000000000000060041800780424000000000000000000CB
:4034C00000000000000000000000000000000000000000000000000000000000000000000000000000000000000000000000000000000000000000000000000000000000CC
:40350000000000000000000000000000000000000000000000000000000000000000000000000000000000000000000000000000000000000000000000000000000000008B
:40354000000000000000000000000000000000000000000000000000000000000000000000000000000000000000000000000000000000000000000000000000000000004B
:40358000000000000000000000000000000000000000000000000000000000000000000000000000000000000000000000000000000000000000000000000000000000000B
:4035C00000000000000000000000000000000000000000000000000000000000000000000000000000000000000000000000000000000000000000000000000000000000CB
:40360000000000000000000000000000000000000000000000000000000000000000000000000000000000000000000000000000000000000000000000000000000000008A
:40364000000000000000000000000000000000000000000000000000000000000000000000000000000000000000000000000000000000000000000000000000000000004A
:40368000000000000000000000000000000000000000000000000000000000000000000000000000000000000000000000000000000000000000000000000000000000000A
:4036C00000000000000000000000000000000000000000000000000000000000000000000000000000000000000000000000000000000000000000000000000000000000CA
:403700000000000000000000000000000000000000000000000000000000000000000000000000000000000000000000000000000000000000000000000000000000000089
:403740000000000000000000000000000000000000000000000000000000000000000000000000000000000000000000000000000000000000000000000000000000000049
:403780000000000000000000000000000000000000000000000000000000000000000000000000000000000000000000000000000000000000000000000000000000000009
:4037C00000000000000000000000000000000000000000000000000000000000000000000000000000000000000000000000000000000000000000000000000000000000C9
:4038000000400020F96C0000E36C0000E56C000000000000000000000000000000000000000000000000000000000000E36C00000000000000000000E36C0000E36C000036
:40384000E36C0000E36C0000E36C0000E36C0000E36C0000E36C0000E36C0000E36C0000E36C0000E36C0000E36C0000E36C0000E36C0000E36C0000E36C0000E36C000058
:40388000E36C0000E36C0000E36C0000E36C0000E36C0000E36C0000000000000000000000000000000000000000000000000000000000000000000000000000000000002E
:4038C0000000000000000000000000000000000000000000000000000000000000000000AB00001069770000C11180310000000000000000000000000000000000000000AA
:4039000010B5064C2378002B07D1054B002B02D0044800E000BF0123237010BD000B0020000000009CEA0100044B10B5002B03D00349044800E000BF10BDC0460000000048
:40394000040B00209CEA0100402292029A1A92467047C046174B002B00D1134B9D46FFF7F3FF00218B460F461348144A121A19F0A7FA0E4B002B00D098470D4B002B00D06F
:4039800098470020002104000D000D48002802D00C4800E000BF19F049FA2000290000F097FE19F02DFAC0460000080000000000EF6C000000400020000B002018360020E8
:4039C000000000000000000010B500F0F1F900F005F800F0F7F800F079F910BD10B5774C0021012005F0C0FF22000021012005F005FF0021012005F095FF0121080005F068
:403A0000B3FF01212200080005F0F8FE0121080005F088FF0221012005F0A6FF00220221012005F0EBFE0221012005F07BFF0321012005F099FF2F220321012005F0DEFEE9
:403A40000321012005F06EFF0421012005F08CFF03220421012005F0D1FE0421012005F061FF0521012005F07FFF04220521012005F0C4FE0521012005F054FF002102205F
:403A800005F072FF1023BA220021022005F002FF0021022005F046FF0121022005F064FF0023474A0121022005F0F4FE0121022005F038FF0021080005F056FF00214F22EB
:403AC000080005F09BFE0021080005F02BFF0121002005F049FF03220121002005F08EFE0121002005F01EFF0221002005F03CFF00220221100005F081FE0221002005F0B9
:403B000011FF0321002005F02FFF17220321002005F074FE0321002005F004FF0421002005F022FF2F220421002005F067FE0421002005F0F7FE0521002005F015FF2F22D4
:403B40000521002005F05AFE0521002005F0EAFE0621002005F008FF00220621100005F04DFE0621002005F0DDFE0721002005F0FBFE2F220721002005F040FE0721002052
:403B800005F0D0FE0821002005F0EEFE02220821002005F033FE0821002005F0C3FE0921002005F0E1FE00220921100005F026FE0921002005F0B6FE10BDC046BF5D000011
:403BC0007FBB000010B505220121002005F088FE08220021012005F083FE04220121032005F07EFE03220121042005F079FE02220121052005F074FE09220021062005F014
:403C00006FFE01220221072005F06AFE01220021082005F065FE00220920110005F060FE052200210A2005F05BFE022200210D2005F056FE032200210B2005F051FE042284
:403C400000210E2005F04CFE002201210F2005F047FE06220021102005F042FE07220021112005F03DFE01221220110005F038FE01220021132005F033FE0022142011001B
:403C800005F02EFE05220021152005F029FE03220021162005F024FE04220021182005F01FFE00220121192005F01AFE062200211A2005F015FE072200211B2005F010FE89
:403CC00001221C20110005F00BFE10BD10B5254C00212000244A05F00BF901212000234A05F006F902212000214A05F001F903212000204A05F0FCF820001F4C04211F4ABB
:403D000005F0F6F8022120001D4A05F0F1F8032120001C4A05F0ECF8042120001A4A05F0E7F82000194C0621194A05F0E1F800212000184A05F0DCF82000174C0121174AC9
:403D400005F0D6F800212000154A05F0D1F801212000144A05F0CCF803212000124A05F0C7F810BD0000044030D30100B4D3010090D4010064D401000001044040D50100DF
:403D8000BCD40100E8D401006CD501000002044014D5010088D30100000304405CD3010038D401000CD40100E0D301007047000070B58025274C30202D0605F089FE256353
:403DC000254805F05BFC002005F0D4FC0C22A36A9343A362A36AB4329343A36202F0DCFF002005F0E1FDE36A1C481D43E56205F045FC10201A4B1B491A6882431A609A6837
:403E00001140802252010A439A609A69164982439A610B68154A11481A4080231B0313430B6005F009FC002005F0A4FC011E02D00620FFF7BBFF0C22A36A30209343A362F0
:403E4000A36AB4329343A36205F042FE02F0A4FF70BDC0460000034000366E01006CDC0200030440FF8FFFFF00030240FFFFF0FF004870470030000010B500F021FC01231B
:403E80004130037010BD10B500F01AFC01234030037010BD70B500F013FC0500002000F005FC04002800062200213C3019F008F800F006FC0749806B03F044FE9823064A21
:403EC0009B00E250054A0433E250054A0433E25070BDC04648D70100A1410000974100008D41000010B500F0E7FB806804F0B3FF83880400002B07D0002000F0D7FB00236F
:403F0000A188024A09F07CFA10BDC046AB41000010B5002000F0CAFB002109F0FBFA10BD70B500F0C9FB806804F095FF03880400002B0CD0002000F0B9FB0A2105002088ED
:403F400017F072FB024A81B2280009F051FB70BDBB41000010B5002000F0A8FB002109F06FFC10BD10B5002000F0A0FB9621024A890009F013FD10BDCB41000010B500202B
:403F800000F094FB09F0AEFD10BD000037B5002000F08CFB04F06AFF05780400012D10D100F08EFB0221008D615612F01FFF0400002000F07BFB0023024AA1B2009509F0C7
:403FC000DFFE37BDDB41000010B5002000F06EFB002109F041FF10BD13B500F071FB1E21008D494212F002FF0400002000F05EFB0123034A0093A1B2002309F01DFE13BD26
:40400000E941000010B5002000F050FB002109F083FE10BD10B5040000F052FB3D30047010BD000037B5050000F04AFB04000A2D17D8280017F0DAFA344F150616207B6711
:40404000712A85000121444A606B0EF087FB0120FFF7E0FF1323606B3121C37543681B68984737BD01213D4A606B0EF077FB0120FFF7D0FF1423EEE70121394A606B0EF05F
:404080006DFB0120FFF7C6FF1523E4E70121354A606B0EF063FB0220FFF7BCFF1623DAE70121314A606B0EF059FB304A0121606B0EF054FB00F000FB04210FF04DFA606B95
:4040C0000FF0F0FD002000F003FA0022172102F019FF1723BFE70121254A606B0EF03EFB0220FFF797FF00F0EFFA050000F0E8FA204B01000093FA2328009B001E4A17F044
:40410000DFF81823A7E701211C4A606B0EF026FB0520FFF77FFF19239DE70121184A606B0EF01CFB0520FFF775FF1A2393E70121144A606B0EF012FB0120FFF76BFF1B2355
:4041400089E70121104A606B0EF008FB0120FFF761FF1C237FE7C04698D50100ACD50100C0D50100D4D50100E3D50100F6D5010014D60100793E0000CB02000027D6010043
:404180003ED6010052D601006DD6010010B50820FFF748FF10BD10B50720FFF743FF10BD10B50620FFF73EFF10BD10B5FFF7B0FE0320FFF737FF012010BD10B5FFF7CAFE81
:4041C0000420FFF72FFF012010BD10B5FFF7D6FE0520FFF727FF012010BD10B5FFF7F4FE0020FFF71FFF10BD10B5FFF70BFF0120FFF718FF10BD10B50320FFF70BFF10BDA8
:40420000F7B500F05DFA050000F05AFA3C35040068780138042821D817F0E8F90393A1AFD0009C4A0121606B0EF098FA00F044FA09210FF091F9606B0FF034FD00F044FA84
:40424000040000F03DFA944B0100009320003223924A17F035F80020FFF7DCFE00F030FA040000F029FA806804F0F5FD050000F027FA41300378002B26D000F021FA0026D8
:404280004130067000F018FA854A01210EF066FA00F012FA04210FF05FF900F011FA406B0FF000FD3000FFF7B5FE300000F010F9310013F036FDB04206D0300000F008F95A
:4042C0003200042113F04CFD3C342379002B00D1C8E000F0F1F9734BC65C002E00D0C1E02671AB7A002B00D18EE000F0E9F9070000F04CFD320030006B4900F0EDFC3000BB
:4043000000F0E6F8310003F067FC0600433700F043FD3E7000F0D4F943300278AB7A9A426FD3E378002B67D000F0CAF943300278EB7A9A4268D800230320E370FFF76AFE08
:4043400062E05A4A0121606B0EF008FA00F0B4F909210FF001F9606B0FF0A4FC7BE7544A0121606B0EF0FAF900F0A6F90A210FF0F3F8606B0FF078FC6DE74E4A0121606BA7
:404380000EF0ECF900F098F909210FF0E5F8606B0FF088FC0020FFF73DFE002000F098F8002113F0BEFC002800D157E7002000F08FF80022042113F0D3FC4FE73E4A0021B0
:4043C000606B0EF0CBF900F077F909210FF0C4F8606B0FF067FC0020FFF71CFE02F075FC642005F069FBBFF34F8F344B344ADA60BFF34F8FC046FDE701230220E370FFF77E
:4044000009FEE378002B8FD12B7A002B2AD000F057F90600002000F049F90322002108F0D3FD4236307000F04BF9423002782B7A9A4214D3A378002B0CD000F041F94230C1
:4044400002786B7A9A420DD800230320A370FFF7E1FD07E001230220A370FFF7DBFDA378002BEAD100F030F9164916F0F8FF00280ED1207100F028F9040000F021F9124B57
:4044800001000093FA2320000E4A5B0016F018FFF7BDC0467FD60100F7410000CA02000023D701004C08000000000440A3D60100CAD60100E7D6010004D7010000ED00E032
:4044C0000400FA05C9020000873E000001207047014B8000C0587047BC04002000487047800D00200048704760D8010001210C4B027899541A78002A03D05B78002B00D0B5
:4045000072B6084A0849136809680B431360BFF34F8F064B064ADA60BFF34F8FC046FDE7A40B002078040020A80B002000ED00E00400FA0510B5024808F08AFA10BDC046B2
:40454000C025002010B5024808F082FA10BDC0463C23002010B5024807F00AFB10BDC046C025002010B5024807F002FB10BDC0463C23002010B509F015FD024816F0A6FF64
:4045800010BDC0463C1F002070B500281AD1104D104C2A000321206813F0E2FB0C2300280ED12A000321606813F0DAFB002802D00122094B5A700022084B1A6002235B42F6
:4045C000180070BD0021054B18600800FFF78EFFED440000BC040020A40B0020A80B002010B50448044A002901D00021034A0EF0B5F810BDF011002070D7010085D701004A
:4046000000223021100010B500F0B4FE064A074B11680B431360BFF34F8F054B054ADA60BFF34F8FC046FDE7780400204C42000000ED00E00400FA0537B50024009401949E
:4046400004F07AFB812301280ED1164804F0D6F98021431E9841FF2289002F23C4005200080004F04DFA95232100180012F076FE0D4B1D6829002D0AE031ADB2002C0DD1B6
:40468000084B1C682200240AE032A4B2E02012F06BFE2800210012F083FE37BD80246A46A400F3E780FE010080FF0100014B8000C05870473005002000487047F01100205F
:4046C00000487047F01E0020004870473C1F0020F0B585B002F000FB012004F027FB9A499A4805F08FF98023994C23600126994B9D6A05F065F831002D06AD0FA940F1402A
:404700000918E940944816F081FD62B6934D944A2900944800F04CFB04F0C8FA924804F0FDFA92498E4802F017FD9149914805F069F99149914805F065F99149914805F0D3
:4047400061F99149914805F05DF980239B012360202323608023DB0123604023236004228B4B8C4C1A6492188B491A6420008B4A04F082FE802322681B06134323609427D8
:40478000FFF776FB864CBF00E051FFF771FB854BD851E05904F008F9071E01D0FFF730FF200004F08AFB8A22037BFF322000A35404F083FB81210830C37F89002000635433
:4047C00004F07BFB8A22037B7648FF328354200004F073FB81210830C37F724A89005354714B39000193714B714A00932000714B07F048FE6C4B310001936F4B6F4A0093A7
:4048000068486F4B07F03EFE200004F04FFB524B020001936B4B2100009351486A4B12F0F1FF4F4802F027FB0028B7D021005D4A280011F09BF8FFF71BFB474B0100634A76
:4048400028000FF0ABF93100614A28000DF086FFAB2331005F4A029328003300019700970DF07CFF3B005C4A31002800019700970DF074FF594B5A4A1B7812781B021343F7
:4048800004D131002800574A0DF068FFB623344CDB00E258E2235B00D358534A20009A60524A1A6102F094FD200002F015FC200002F0F8FBFFF7EEFA00223121200000F0F1
:4048C00059FD04F00DFAFFF7D3FA04F086FAC37C224E002B09D002F0B7F9012002F0D8F901213000424A0DF039FF200013F0BAF8572012F003FF3F4B0321186812F01AFF4B
:404900008022802180202F2392004900800212F003FFFFF791FE12F0F7FE124D280000F0CBFAFFF76DFC200013F0C0F8200002F0ACFA30000FF0D4F9280001F01DFD04F014
:40494000E7F912F097FDE8E775450000F4D8010000E100E0000003403C1F0020F0110020AC0B0020F01E0020E1450000C0D8010065450000D4D8010045450000DCD8010071
:4049800055450000E4D8010035450000ECD801000001044000000640ECD201006C0B00203C230020C0250020DD4400001C0B002000000A4000FF0A40440B002000000B4047
:4049C00000FF0B40ACD8010060D80100C40400209FD70100ACD70100D4D7010099F3FF0F9AF3FF0FF2D70100A4D80100B8D8010043D80100BC04002010B50F2489008C40CA
:404A00008A40054BC018054B000AC01800020368A3431343036010BD0000FCBF00024000072370B503251E004D431340AE40AB408468D208B443234301248C408A4083606A
:404A40008369A3431A43826170BD9E230122DB00CA54704710B5FFF733FE01234430037010BD0000F8B5060015000F001C00FFF727FE0223B17A727A49001940013B1A401D
:404A80001143AA0011436A4255413F01394308276D422C401C40B943124B090619408C4643698068990563468005E4061C43830D18008D0D090B0C432043240E274204D14C
:404AC0009D4202D9800A800228430123D536FF36B27C93429B41044A5B42DB0510401843F8BDC046FFFFFFF7FFFF7FFF10B5FFF7E3FD024BC358984710BDC04644080000A0
:404B000010B5FFF7D9FD84231B01C358984710BD10B5FFF7D1FD024BC358984710BDC046FC07000010B5FFF7C7FDE423DB00C358984710BD10B5FFF7BFFD024BC3589847CE
:404B400010BDC0462407000010B5FFF7B5FDE523DB00C358984710BD10B5FFF7ADFD044BC35898470322034B5A635B6B10BDC046880A0000FC00094070B504001E00012367
:404B8000A340A240074D28689843104328600A0028002100FFF744FF320028002100FFF72BFF70BD00000440F7B5FA258A23AD0004002800FF330F005043E15C160016F080
:404BC00033FD2378262401905C43962F2AD1354B354AE318A2181B781178344A1B02A2180B431178324A0902A4182478FA222143FA2452000A260A25019876425E436843E9
:404C00003618101BC91A704316F098FD6C430419230000200E3303DB2900601D16F08EFD80B2FEBD234B244AE1180B78A7183A781B0213439E420FDA204B214AE3181B780F
:404C4000A41822781B021343FA2209783C7809022143D2002C00CDE71A4B1B4AE5182B78A21810781B0203439E420BDAFA240B7839781B020B432978127809021143E400FA
:404C8000124AB7E72B781178114A1B02A2180B431178104A0902A418FA222478120121430A4CA7E799F3FF0F9AF3FF0F9BF3FF0F9CF3FF0F91F3FF0F92F3FF0F8DF3FF0F70
:404CC0008EF3FF0F95F3FF0F96F3FF0FB80B000097F3FF0F98F3FF0FF7B50D0014000190FFF7EEFC254F264B2649FA5806000A40FA50254AD0580840D05001980138052888
:404D000027D816F073FC030B12171C21FA580A40E021C9001143F95006221DE0D0580840E021C9000143D150F6E7FA580A4080214900EFE7D058084080214900F2E7FA5806
:404D40000A40D0210901E5E7D0580840D0210901E8E7019B1A1EDFD121002800FFF74CFE092221002800FFF75BFE337F002B03D1019B356273777462F7BDC04600000A4070
:404D8000BC080000FFF0FFFF00000B4010B5FFF797FC0123037710BD10B5FFF791FC03000022196A0277407F5A6AFFF795FF10BD73B50E00150000214C22040018F080F89D
:404DC000002E16D0002D14D00A4B6663E3620A4BA5636380FFF778FC0400FFF771FC074BB3220093FA2301005B002000920016F067FA73BD0000064088130000554A00001E
:404E00000020704770470020704710B50800110016F06CF904000120FFF748FC0122002108F01EF90123844200DB0023D8B210BD10B50120FFF73AFC0122002108F010F97C
:404E400010BD0000030013B544331A780400002A29D00022806B1A70FFF7EAFF03210300114A606B0DF07AFC2300433303211B780E4A606B0DF072FC2300423303211B7807
:404E80000B4A606B0DF06AFCFFF71EFC0400FFF717FC084BB3220093FA2301005B002000920016F00DFA13BDFCD801000DD9010021D90100554A0000F7B505002B78448819
:404EC000406B002B16D06B78002B37D00027AB6B9349FC331E6D934B6F70C05816F08BFA3A003B007178D7B2B9420DD88E4A686B934216D1837B002B20D00EF0D3FE032174
:404F0000686B0EF029FB19E0971CBF00F019C078800904D1BB5932301B039B0D43430132E1E7824A934253D80A22110010F02EFD686B837B002B01D10EF096FE6B6B98684B
:404F400003F084FF0378012B5FD16A6B937B002B5BD0297E687EAE7EEB7E002900D0D6E0002800D0D7E0002E00D0D4E0002B49D00023EB76994202D000236C4C2B76002860
:404F800002D00023684C6B766B88002E0AD000216648A97683421DD165486649125A8A4200D9B0E09C422DD002D22C85FFF714F801236C802B710020FFF78AFA00220421DF
:404FC0001300009212F040FE00281ED128711CE01E22AAE758498B420AD15549525A57498A4200D991E056498A42DBD80400DCE754488342D6D14E4E5348925B8242D1D888
:405000000C00D2E72B79002BD5D19E236C6BDB00E25C002A4ED000224C4FE2544C4BE253E05C4C4E4C4B0A2800D96AE09F21C90016F0DCFA060D4467480B4B5A67480B00E7
:40504000A255464AA25C002A1AD1E25418E0625C012A0BD00122E254A2534149625C092A0BD801326254C822E25309E0E15C5140E154A15D4A40A255EFE70022E254A25362
:40508000E15C636800205B6E9847636801205B6EA15D98472E4BE25C0133E254E35B002B08D0304A1F480092B22221002058920016F006F92800FFF7C5FEF7BD0122A25506
:4050C0000022C2E7A2550122BFE7625C062A06D00022E2540132A253C8225200C4E70122A15D4A40A255F7E7615C0122072904D0E2540022A253FA22B6E7E15C4A40E25493
:40510000F9E7A255A1E70C4C52E70E4C50E7002B00D131E72CE7002B00D130E728E7C046CB020000FC0C00008813000028230000C80A0000571B0000983A0000C7320000D5
:4051400070170000204E0000E02E0000F4040000F7040000F2040000F10400000F070000F30400004B4A00007047000070B5FFF7A7FA040001F0A9FD064B0500A362FF2321
:4051800030342370FEF720FFFEF73CFF280001F0A0FD70BD20032003F0B58BB00F0003920500FFF78DFA436B986803F04FFE0478002C1CD12800039A390002F0ABF92D78C9
:4051C000FFF77EFA574BAD00EB58028D9BB20385934206D03030934205D901230370FEF7D5FE0BB0F0BD0470FEF7F6FEF9E72B001933FF330293FFF763FA2B7804000893B6
:405200003B8900269B059B0D01932B007C331B780793029B9C46079BB34274D07B780020069365E0811C89007B18DB789B095ED1322263880593CB591B039B0D5A43130006
:405240000492059A934252D16246322312681203920D5A43049B934249D16346CA5B198892058905880D930D914200D2031C9BB26361A360330074335B000999EB189B880D
:40528000013100222800DB0BC9B2FFF7EBFB0700FA21029BB6009E19336849001A033388920D9B05980D22616061504315F008FF019B6269E060934200D263612B00EC332A
:4052C0001B882269A36032235343228D934202D22385FEF781FE089801F0D4FE0760287801F0D0FE039B01002800984779E70130C3B20993069BC2B2934293D804230136FA
:40530000F6B29C4487E7002E08D10122330011002800FFF7A7FB26700700B9E72B00FC335F6CB5E778290020704770B50C0001F0CCFC0500FFF7C4F9C8239B009C4213D0EA
:40534000028D0485944206D03030944207D901220270FEF71BFE280001F0BBFC70BD00220270FEF739FEF6E7FEF72EFEFEF74AFEF1E7000070B506000C00FFF7A1F9050014
:405380000C2C11D0FFF798F9230004211B4A0DF0E5F9122C2FD008D8022C0ED0012C03D9032C28D00A2C26D070BD162C11D0242CFAD10A20FEF736FEF6E730352B78002B72
:4053C00002D1FEF7E3FDEFE7012BEDD1FEF704FEEAE73300A2331B882B856B85FEF7D6FDFEF7FAFDB223DB00F35C012B03D10223FF332B80D8E700232B70D5E735D9010035
:4054000070B50E000400FFF75BF90500F01E30283DD816F0FFF831003D0047008C009800A6004E003C00A0003C009C009E003C0056003C006A016E016400A4006A006D00C8
:405440006F00710073007500A800AA007C00AC00AE005301560158015A015C015E016001620164016601680173018E01920145024A024E0244009601FEF74AFDFEF76AFD3C
:40548000FEF77CFD00232B760133FF336B8370BDFEF728FDFEF744FDFEF764FDF7E701232B76F4E70121A94A297620000DF056F9EDE70121A64B6976E35CA64A002BE6D01F
:4054C000F3E7230059331B78A34A032120000DF045F923005A331B78A04A032113E00123AB769F4B9F4AE356F7E79F4A0121DCE79E4AFBE79E4AF9E79E4AF7E79E4AF5E7C7
:40550000237E9E4A012120000DF028F9BFE79C4B9C4AE35CA15C9942B9D0A3540132A25C9A42B4D09E230122DB00E254AFE7964B964AE358012120000DF010F9E623DB0034
:40554000E358934AC9E7934B934AE358C5E7934ACCE7934ACAE7E31DDB7F924ABDE7924AC4E7924AC2E7924AC0E7924ABEE7924ABCE703212000914A0DF0F0F8904BE05C1F
:40558000222800D192E02FD815281AD8032800D87DE70438112800D979E716F031F83A003C003E00400078FF750078FF78FF78FF78FF78FF78FF78FF78FF78FF78FF78FFE7
:4055C0007700202800D062E77E4A012120000DF0C5F87D4B7D4AE05C062887D816F006F8585A5C5E60626400552863D00AD851285ED0774A542800D178E7764A252800D19D
:4056000074E744E7712857D0734A812800D16DE73DE7724A6AE7724A68E7724A66E701212000714A0DF09AF8674BE05C372815D8242804D81638012818D96C4A56E72538AE
:405640001228FAD815F0C8FF1E1212F9F9F9F9F9F9F9F9181A1CF9F9F9121200672809D8652803D8472803D84528E6D9604A3DE75638E0E77638DEE75E4A37E75E4A35E77D
:405680005E4A33E75E4A31E75E4A2FE75E4A2DE75E4A2BE75E4A29E75E4A27E75E4A25E75E4A23E75E4A21E75E4A1FE75E4A1DE75E4A1BE75E4A19E75E4A17E75E4A032192
:4056C000F3E65E4AFBE75E4A10E75E4A0EE75E4A0CE75E4A0AE75E4A08E75E4A06E75E4A04E75E4A02E75E4A00E75E4B5E4AE358F3E6E723DB00E3585C4AEEE65C4B03212E
:40570000E3585C4A20000DF029F8F423DB000321E358594A20000DF021F8584B584AE358032120000DF01AF8F323DB00E358554AD3E6554B554AE358CFE6554B554AE35C1C
:40574000CBE6554B554AE35CDCE6C04646D901000C07000057D9010067D901007FD90100DB0A000097D90100A4D90100ACD90100B4D90100BCD90100C4D90100CCD9010072
:40578000F6040000F70400003C070000DDD90100EDD901002C070000FCD901000EDA010015DA01001CDA01002BDA010060DA010071DA010081DA010095DA0100B5DA010071
:4057C000010800003FDB0100020800001ADC0100BADB0100AEDB0100D1DB0100C4DA0100CADA0100D4DA0100DEDA01001DDB010011DB0100E6DA0100F0DA0100FBDA0100C3
:405800000ADB010030DB010039DB010047DB010051DB010062DB01006FDB01007BDB01008ADB010099DB0100A3DB0100B4DB0100C3DB0100CCDB0100DADB0100EADB010084
:40584000F9DB010006DC010013DC01001FDC01002DDC01003ADC010046DC010053DC010060DC0100340700006DDC010082DC01009C07000093DC0100A1DC010094070000C3
:40588000AEDC0100BEDC0100DC070000D0DC0100E6070000E7DC0100E7070000FCDC0100FD23DB00E358074A17E6074B074AE35813E6E37D064A19001339092900D90CE64D
:4058C000002120E618DD0100EC07000029DD01003CDD010070B500251A4B1B4A802183501A4A1D601A601A4A89001A6207225A500131FF315A5004002900B432022003F024
:405900007DFF02212A00080003F0EAFF01228026104D0E2311001000FFF72EF9F6002B1DDE67BFF34F8FBFF36F8F0B490A2004F055F82E60094B0A49E25897239B00D150BE
:4059400070BDC046000007403C0800000F0800810100008000E100E0014B0000F80C0000ED4A0000F8B5C0270E001500040001F0ACF9164BFF00DA59154976020A40AA2139
:405980001643DE51062689005A58920A92025A505A58B2431600042232435A5010225E5832435A500B4A0C4EA158962292008E500A4AAE21A550202289005A5008315C58CB
:4059C00022435A5001F085F9F8BDC04600000B40FFF1FFFFF80C0000114B0000FC070000F8B5C0270E001500040001F06EF9164BFF00DA59154976020A40AA211643DE51B9
:405A0000062689005A58920A92025A505A58B2431600042232435A5010225E5832435A500B4A0C4EA158962292008E50E422AE21D200A550202289005A5008315C582243E9
:405A40005A5001F046F9F8BD00000B40FFF1FFFFF80C0000254B000070B5B025040001F034F92021084BAD005A598A435A51AE2292009950054B0021E25896239B00D150F7
:405A800001F027F970BDC04600000B40F80C0000F8B5150004000E0001F017F9C022E027154BD20099587601B94331439950AA2189005A58114E32405A505A58104E1640BB
:405AC0008022120132435A5080225E58D20132435A500C4A0C4EA158972292008E500B4AAE21A550402289005A5008315C5822435A5001F0EEF8F8BD00000B40FF03F0FF44
:405B0000FFE7FFFFF80C0000354B00002407000070B5B025040001F0D8F84021084BAD005A598A435A51AE2292009950054B0021E25897239B00D15001F0CBF870BDC04634
:405B400000000B40F80C0000F8B50600164C0F0001F0BBF8154A1649A35805005B005B08A350144B1420F25895239B00D150E5231621114ADB00F750A3588B430343A35090
:405B80008D2281231201A1580B43A35003F094FF04230A4A2800A350094AA1580B43A35001F097F8F8BDC04600000B40BC080000494B0000F80C0000102000003C2000002E
:405BC0004420000070B5040001F07FF88D2181250A4B09015A58AA435A500421084D5A598A435A51074A9950074B0021E25895239B00D15001F06DF870BDC04600000B40E0
:405C0000442000003C200000F80C0000F7B50B000E00344A042104000CF0A0FD032E1ED83000314D15F0E2FC0226523C2F4F21787B59A068019303F0D4F80723019A4C30A6
:405C40009A43130002782A491343062000227B51FFF742F8274A032120000CF07FFD03212000254A0CF07AFD0022244BE654244BE254F7BD1D4F21787B59A068019303F0CE
:405C8000B0F80723019A4D309A431300027818491343062000227B51FFF71EF8194ADAE7194F21787B59A068019303F09AF80723019A4E309A43130002780D491343052021
:405CC00000227B51FFF708F8104AC4E707230E4A052051590B43535105490022FEF7FCFF0B4AB8E749DD0100BC08000000000B40000004405ADD010017DF01001E08000055
:405D0000230800006EDD010000000A4082DD010095DD0100F8B58027154E164D040000213000154A03F012FF3F022B1DDF67BFF34F8FBFF36F8F11490F2003F04FFEC32240
:405D4000C0219200AB5809061B021B0A0B43AB502F60320001230021FC32D363084AA650084AA1500432A3500F22074BE252F8BD0000094000E100E024D20100594B0000E4
:405D8000780A00007C0A0000840A000010B500F09CFF802304000649064A9B01885803438B50142003F088FE200000F092FF10BD00000B406021000010B500F086FF0849A8
:405DC00004000848084A43581A408023DB0113434350142003F070FE200000F07AFF10BD6021000000000B40FF9FFFFFF7B500F06CFF0424DC26104D104A2B6801901340EE
:405E00002B6010230E4F30003B6400F055FF1023013C30007B64E4B200F04EFF002CF0D12A68064B01981A4080231B0313432B6000F04FFFF7BDC04600000240FFFFF0FF56
:405E40000000044010B500F040FF04000823002206210420FEF790FE0222054B200019680A431A60802292049A6000F032FF10BD0000094010B500F028FF0221034A1368BF
:405E80008B43136000F025FF10BDC0460000094070B500F01AFF05000020FEF707FC04F043FB0400280000F014FF200070BD0000014BC05A7047C046CA0A0000F0B50020BC
:405EC00085B00191FEF7F2FB4768050000F0FDFE504A0390BB580A205B005B08BB50C5221023D200B95801260B438C21BB50802309017A581B0513437B5003F0DDFD01224D
:405F00000021280006F0B4FF00210200280006F072FF414B040098425DD98C2109017B583E4A0A2013407B5003F0C6FD32000021280006F09DFF00210200280006F05BFF65
:405F40000400019B9E422BD328230293019B002B05D058080019190015F066FB040026232A7853432E4A9A1816782E4A36029B181878064334D028000299A2B2FEF714FE94
:405F8000C5221021D200BB5804008B43BB500A2003F092FD039800F09CFEA0B205B0F0BD01220021280006F063FF00210200280006F021FF01362418F6B2C2E70122002155
:405FC000280006F055FF00210200280006F013FF01362418F6B2019B9E42EFD39623B4E7114B6421E85A029B5843323015F01CFB80B2844200D9261A8A23FF33E95C029B84
:406000000A484B4370435E081900801915F00CFBB6E7C046BC0800003A070000FFFFFFF799F3FF0F9AF3FF0F020200001027000013B50020FEF73AFB07F032F9FEF740FB39
:40604000012348300370FEF73FFB0400FEF738FB044B0100009320003223034A15F030F913BDC0463D630000D1020000F0B587B00400FEF725FB0500200002F01EFF0290DF
:4060800003F09EFB049000F020FE2A00059045321378022B4AD80133DBB2137004221E000192022B04D0032B39D1012607330193200004F0DBFF08352B00070003953E2006
:4060C000185E3100C01B15F039FBC01905B2AF4203DDFEF7F1FAFFF7ABFF1949049815F0A3FA2A00174B06003900200005F0F4F8039B3E229B5EBB4215DD029BDA89019B16
:40610000002153431A000120724303F077FB200005F0D4F8059800F0DCFD07B0F0BD012302260193C4E7029B1A8AE8E7FEF7C4FA0400FEF7C1FA044BE25A044BC252E9E7E8
:4061400040420F00CD620000C80A0000CA0A000010B5FEF7B5FA48300378002B0ED00020FEF7A4FA07F0E2F8FEF7AEFA044915F042F9FEF7A5FA00234830037010BDC04631
:40618000D102000070B5050000F09FFD0400FEF793FAFFF7DDFF0020FEF788FA04F06CF9034B044A2000EA5000F093FD70BDC046C80A0000A00FA00F70B506000020FEF7F5
:4061C00075FA040000F081FD0500FEF775FAFFF7BFFF200004F07CFE200005F095F90022024B2800F25000F074FD70BDC80A0000F0B585B00F0002920600FEF761FA0090D4
:406200000020FEF753FA040000F05FFD0190200004F08EF900281DD01F4BF752FEF74CFAFFF796FF3900200007F05CFE0500200004F01CFF0390200005F04AF9002802D12E
:40624000200005F061F9039B9D4208D1124BF25A124BF252019800F03CFD05B0F0BD029B002B0DD10C4BF35ABB4203D9FEF724FAFFF7DEFE29002000094A05F02EF9E9E75B
:406280000022009B0098453308301A70C5872000FFF7ECFEDEE7C046C80A0000CA0A0000A562000010B5FEF707FA0400FEF704FA044BE25A044BC252FEF7FEF9FFF748FFC2
:4062C00010BDC046C80A0000CA0A000010B50400FEF7F2F9FFF73CFF2000FFF7C7FE10BD70B5040000F0F1FC05000020FEF7DEF904F01EF9002805D10024280000F0E9FC82
:40630000200070BD0020FEF7D1F90122002106F0D7FE094B0522E15A10F071FD0028EBD00020FEF7C3F905F0D3F8041EE4D0FEF7C3F9FFF70DFFE0E7C80A000010B5FEF7AE
:40634000BBF9FFF705FF10BD0822054B002800D00422002901D15A6470471A64FCE7C0460001044010B50400FEF7AAF92100C06A02F020FE10BD0000F7B500236A46466B35
:40638000D371184BC76AF618300010F07DFD002802D000252800FEBDFEF78EF9124BC55C002DF6D13B6810241B0500D4083C82239B00FB58DB05DB0DE41AA4B2002CE9D0BA
:4063C0006B463000D91D10F075FD0028E2D06B46DB79013CA4B2002BDCD0902292000500BB50EBE7FC040000F9070000F7B54468FEF762F98568FEF75FF90178280002F070
:4064000003FD0523FA4E0090727FFA4F5A43062100200192E55903F023FA411CF02015F003F9ED0AED020543E5510621343F0020E55903F015FA411CEF4815F0F5F8019971
:4064400015F0F2F86D0A01386D0205430621E5510020E55903F004FA411C302015F0E4F85423FA215843890015F0DEF8E34B00031D400543E551737E012B00D03CE2802341
:40648000DF495B01625813436350DE4D06210020675903F0E5F9411CF02015F0C5F805236421584315F0C0F8D74A0138062106050020174003F0D4F9411CCF4815F0B4F876
:4064C000019915F0B1F83E4306270338800206433E436651CD4E39000020A55903F0C0F9411CF02015F0A0F805236421584315F09BF8C54A0138154000053900054300201D
:4065000003F0AEF9411CBC4815F08EF8019915F08BF80338800205433D43A551BC4E39000020A55903F09CF9411C302015F07CF8FA23FA21DB005843890015F075F86D0A09
:406540006D020543A55139000020A55903F088F9411C302015F068F8FA23FA215B005843890015F061F8AB4B80021D40AA490543A5516358A94AAA4E1A40AA4B0198134392
:4065800063507F23A55915219D4315F04DF80543A5511421019815F047F8A559A24B009A00031D400543A148A55103322358D27F9F4906000B40D1030B432350009B2158E9
:4065C00034331B78090109091B070B4323500F209849009D63580135ED7F83432B43350063500099A35932310E788343334363510099914D04316359C97F83430B43635196
:406600006059F025009BA84335331B788A4D1B0103436351894B8A4DE058009B28400233DB7F854D5B030343844823500098635933300078834D2B40C5052B437E4D6351D3
:40664000814D63593B436351804BE5583D43E550022800D858E1022900D85FE1022E00D862E1022A00D869E18021794A8902A35878489BB20B43A3502358774A9BB20B437B
:406680002350A35875499B0A9B020B43A350744A744BA15800200B43A3508023724ADB04A1580B43A350714A714BA1580B430121A350704AA3580B43A3506F4B0531E758E4
:4066C00003F0CEF806210600002003F0C9F806210090002003F0C4F8411C302014F0A4FFFA21664B8900584314F09EFF013805036348711C0740302014F096FFA723FA21E7
:406700005843890014F090FF3D4306214706002003F0A6F8009A060001321100302014F083FF7823FA21FF335843890014F07CFF0138711C2F434500302014F075FFFA2158
:40674000504B8900584314F06FFF000507433D438027494BFF052F43E750C023D82128489B052258C900134323506358464A474D1A40D8235B0113436350454B4549E25848
:406780001B4E114082220A43E250E25842490A40E250E25841490A40E2508C2280231201A1585B050B43A3500A233D4AA1580B43A3503C4A3C4BA1580B43A3503B4A3C493E
:4067C000A3580B400121A35063590B43635133000833D87F374B38495843F31DDB7F6759594314F021FF0321344B80001F4067E0380500203422000080BB0000FF0FFFFF70
:406800001C22000010220000800308F81422000038220000FF03FEFF0422000001C0FFFF0C22000054070000FF0F00F050210000FF7FF8FF4C210000382100003C21000061
:40684000FF1FFEFFFFFF7FF89C220000A02200005C210000442100009422000007020000242200000000C05F2C210000302100000080840134210000202200001E020000A8
:40688000810F08E071020000FF00FFFF28210000BC08000040FFFF7FFFFFF0FFFFFFFF9F1C21000020210000000004C824210000FFFFFFFE807D02008813000003FCFFFF7C
:4068C0002B4A07436751A3588B4302390B43A350717E012938D12749274A63581A408023DB001343602263502449635893431A00202313436350F7BD022B00D0C5E5802359
:406900001F499B016258BEE5022907D88521890160581C4B80B2034363509FE6852189016058194B80B2F6E7022A07D81349174A63581A40164B1343635095E60F49134A1B
:4069400063581A40134BF6E71348144A23581A4080231B021343622223501148235893431A002023134323500229C4D0B3E7C0460C21000050210000EFFBFFF85421000009
:406980001C2200000000767700007675FF0300FC00DCCD0100DCC50138210000FF7CFFF73C210000F8B501217A4A04000BF0D6FE0020FDF77BFE03F0C1FD0120FDF776FE23
:4069C0000726FFF713FD0523734D744908276A588020B24313436B50C023DB00EA5800053A43EA508022E95812040A436C49EA506A5802436A50C0216A4A8901A858014313
:406A0000A950A95803200B43AB50062109230022FEF7B2F80923002206210220FEF7ACF861496248624A0B581340872213438C220B5012018B588022520513438C221201E8
:406A40008B505C4BCA583A43CA500A58B2430A508C221201A9588022D20411438C221201A950A9588022120511438C221201A95029584F4A11408722114380222950043063
:406A800029585205114329501F204B4A516F814351678832116881430800162101431160EA5846490F200A40EA50EA5844491140E02252040A43EA50EA5842490A40EA5062
:406AC000414AA95881430E43E021AE50A85889010143A9503D4906206A580126520C52046A50EA583A490A40FF211743EF50394B0227EA588A43EA50EA5837490A40EA5028
:406B000036490022FEF7E8F82178A06802F069F90A21C08E14F088FD314B85B22178A0686D08ED1802F05DF90A21C08E14F07CFD81B2280014F078FD2A4D0300310060639A
:406B4000A563E66327642000274A0BF007FE31002800264A03F072F8636B2800591EF340FC3081650365224B0336E5500433E750204B3900E65028001F4A02F0E7FF802339
:406B80008022DB00AB602B68D2041E432E60AA60F8BDC046A8DD010000000B4068210000382100006021000000000A40BC08000078FFF07F0C21000000FF0B40FFFFC3FFD1
:406BC000FFFF3FFCFFFFFFC31021000018210000E1FCFFFF14210000FF7FFFFF000004400053070000000940B7DD010088D20100140700001C070000D8D1010070B50400BE
:406C0000FDF75EFD05000020FDF750FD02F055F923004A331B7806002178A068012B0FD102F0DFF8008A737E012B08D16B8DF53BFF3B1A1C9BB2834200D9021C90B270BD20
:406C400002F0CFF8C089EEE770B50120FDF72EFD9426002390254468B601A3512D016259033313436351322002F026FF0823625932201343635102F01FFF034B0348A3517E
:406C800002F01AFF70BDC046200004008813000010B5074C002805D0012002F06BFD0023236310BD80231B06236302F063FDF8E700000340000000000230800803D001384D
:406CC000FDD1C046C046C0467047EFF3108072B6704780F31088704710B5FCF775FE002010BDFEE710B502F0F1FE10BD704710B5FFF7FCFF10BD704770B5FFF7FCFF00F083
:406D00003FF8C0221649174816F0BEF80123164A11680B431360BFF34F8F144B1448834211D30020134B14498B4217D3FCF712FE1C68910064585D6801326C5099688A4227
:406D4000F6D30C33EBE70022F8E71D689400605101325C68A242F8D30833E5E70022F8E7003800000000002000001040A8EA0100B4EA0100B4EA0100BCEA010070470000E9
:406D8000034B044A10B59A6372B6FFF7F7FF10BD000003406588EDAC114B10B59C6A02F00FFD01232406A40FA3405B081818E04014D00C4B441E18600B49200014F034FC52
:406DC000FA210A4B013018708900200014F02CFC074B01301860074BC003186010BDC046000003407405002040420F00800500207C050020780500207047E0235B00C258BB
:406E0000B72310B5DB00D058C9B214F028FB10BDE0235B00C258B72310B5DB00D058C9B214F0E9FA10BD000010B50378042904D1054AD15C10F0E3FE10BD0329FCD19530CE
:406E40000178014AD154F7E74428002013B5E024640004590498D2B20090B720C000205814F02EFA16BDB62310B5DB00C1586A2004F00EFA10BD10B5040000F0A9FA00280B
:406E800002D0200000F0A4FA10BD10B500F0D0FA012010BD30B5CB798C788FB07F2B22D91A255B061B0F01335D43CA88D205D20DAA4218D9097803AA11700F4954705180E8
:406EC0000F210B40DB0075310B43D3700B4B773993601B2313730A4B0093012310F0B4FE01200FB030BD02239C43092CF8D0002212210092013BF1E70084FFFF28290020CE
:406F0000296E0000F8B504000D0017000678232914D8080014F06AFB9D391739171717171717392F17171717175F5317955376171717391917178B171717171F2F2900D118
:406F40007BE039293BD000264BE0454B30001B68DB689847F7E7F8235B00E25C414B9B5D9A4202D0200000F0D1F9F8235B00E35C3C4A9355E7E70123220074321278002A64
:406F800009D0002B07D1152DDDD0B723DB004B21E05814F030FA012D13D1200000F054F90028D0D1702373432F4EF618423633785BB2002BC7DB200010F01DFEC3E700236E
:406FC000DAE7032D01D01A2DBDD1B623DB00E05806F07EFDB7E770237343234EF618473636783A002900200000F09CF9002808D1002E06D11A4B3A001B68290020001B6810
:407000009847F8BDF323D2225B00E05C773BFF3B734315495200CB183B33012803D901211970A1548FE700261E70A654D9E711002000FFF72FFF0600D3E73000FFF7DCFEDA
:4070400081E770237343084EF61801234936337079E7B623DB00E05803F03AFF73E7C0462C2900204628002048280020E0235B00C0584B1E994110B500222431FFF742FF1E
:40708000012010BD70235843014B0830C01870474828002070235843014BC0187047C04648280020B623F422DB00C3580649520099500649043A99500549083299500549CE
:4070C000043299507047C046116E00004D6E0000FB6D0000676E000010B504000F4B00201B689B68984700F077FF0D4BE3581A0068321278693351424A41D32149006254B1
:407100001B7808495A425341A622FF32A354B623DB00E258D6235B00D15010BD2C290020AC0500006D700000F8B5B625170004000E00ED004059002105F0ECFE3B00320074
:407140006059002105F026FF012203000021605905F057FEF8BD0000014B19607047C0462C29002037B5C8210022890004000578FFF7DAFF002810D1B623DB00E05805F06B
:40718000C1F8FA235B00B720094AC000009221005022205814F094F837BD2800FFF77AFF082342300278134303706423EBE7C046B5710000F7B50C000F78C821002220002D
:4071C0008900FFF7B1FF002839D13800FFF762FF4230037808261D0038003540334216D0FFF758FF42300378B3430370B623DB00E05805F087F8FA235B00B720114AC000F2
:40720000009221005022205814F05AF816E0FFF741FF7F22B62642300378F60013400370200010F0E8FC2900A05905F0A5F8A059012105F0A1F8200010F014FCF7BD64233D
:40724000DBE7C046B5710000002310B5027808490848120189188218D05CCC5C844204D30133102BF8D1002010BD0120FCE7C0465029002030290020030010B5D533FF339B
:407280009A7A0400002A02D01B7E002B07D12078FFF700FF02234230027813430370200010F098FC10BD000073B50D000678040010F09DFC134A3301D218515D1248FF293B
:4072C00004D0C618725D0132D2B27255C3185B5D013120008B4211D2002510F084FC2B002A0005212000009510F0AEFCA84204D02A000421200010F033FD73BDFFF7BCFF3D
:40730000FBE7C046502900203029002010B5037803481B0110220021C01815F0D1FD10BD3029002070B5040000780D00FFF7B2FE06000020252D09D8162D08D8012D14D086
:40734000854203D0032D17D0122D15D070BD280017380E280ED814F049F91F0D0D0F0D0D0D0D240D0D0D0D2626002000FFF76CFF002801D00020E9E7423633785BB2002B4D
:4073800002DB200010F037FC032D01D01A2DF1D12000FFF7BBFFEDE700212000FFF784FFE8E70121F9E72300D533FF33597FB623DB00E05805F038FF2000002100F0F4FAF8
:4073C0007D234236357801209D43BFD10421E4E7F8B5B626E2230400F60080595B00C75825783B68002B1AD0A05901F03FFD0F4A03792D01AB547B68002B05D1A05901F021
:40740000E6FC838C002B0FD0B623DB00E05801F045FD064A0379551901206B7005E001F0D6FC838B002BDFD10020F8BD5029002070B505000078FFF72DFE02264230037825
:40744000040033420DD003212800064A10F088FC0F2806D080222378B343237023781343237070BD657100000F22030013409B009A40994010B50009034C80000059046805
:4074800094432143016010BD84050020F0B505000226AC7A6F7A64003440013E37403C43970009013C430C4351424A410827524213403340BC43134E240626400078DB066D
:4074C0003343114A114E800084588059A4058005860D3000A10D240B234318431B0E1F4204D1B14202D9800A800208430123D535FF35AA7C93429B41054A5B42DB051040BF
:407500001843F0BDFFFFFFF78829002080290020FFFF7FFFF0B503788FB007930B8907009B059B0D0993002301910D920A93089304933B007C331B78049A934200D9E5E10F
:407540000A9B002B25D13B00FC33DA69079912038C00AA49920D6250FA219B8BA84D9B05980D60514900504313F0AAFDA54B62591851099B934200D263513B00EC331A8852
:40758000A14B38001A51012200231100FFF77EFF0C900798FFF776FD0C9B03603878FFF771FD0D9B0100380098470FB0F0BD049C3B784434A40003933C19E67AB309059376
:4075C000049B5B00FB180B93EC331888029B80059A1C019B92009918CB78860D9B09012B00D183E0022B00D110E1002B43D1019B1421D5582D03AD0D280013F061FD2B1AAC
:407600000693059B2818012B42D0022B28D0002B31D1A3681B039B0DAB422CD1238931009B059B0D9E4200D21900029A019802329200125A9205920D91421CD8039A7049DC
:4076400092005350FA21039B49009C006B4BE5506B4BE058684313F033FD6A4B185118E1A368069A1B039B0D9A4204D363899B049B0D9842D2D9029B0133DBB20293019BFE
:40768000029A5B78934292D8049B0133DBB24FE7A368069A1B039B0D9A42ECD363899B049B0D9842E7D8FA2520896D008005800D1100684313F004FD040028000699704329
:4076C00013F0FEFC06000200A04200D22200029B019902339B005B5A9B059B0D9A42CAD8039B474A9B00069D9C50ABE7019B4D88D358059AAD041B03AD0D9B0D012A5AD081
:40770000022AB8D1A2681203920D9A42B3D863899B049B0DAB42AED3FA21208949008005800D684313F0CCFCFA21040030004900684313F0C5FC06000200A04200D2220054
:40774000029B019902339B005B5A9B059B0D9A4291D8039B2A4A9B009C50039B9C00274BE550294BE650264BE258264BE250079B244A9B009C58089AA24200D97BE73A00B4
:407780001021FC32D27F0A4205D01C4A08949B58642B00D16FE70B9B029AEC331B88511CDB0B00223800C9B2FFF770FE01230C9008940A935FE7A2681203920D9A4200D90B
:4077C00059E763899B049B0DAB4200D253E7238931009B059B0D9E4200D21900029A019802329200125A9205920D914200D942E7039A034992005350AFE7C0467829002040
:407800008829002070290020802900204B889B049B0D0693019BD558059B2D03AD0D012B3AD0022B00D026E7A3681B039B0DAB4200D920E76389069A9B049B0D934200D297
:4078400019E7208932008005800D864200D20200029B019902339B005B5A9B059B0D9A4200D908E7FA216843490013F029FC039B27499A00274B9850049B44339B00FB18DA
:407880001B899B059B0D5350039B069A9C00224BE250224BE6506AE7A3681B039B0DAB4200D9E8E66389069A9B049B0D934200D2E1E6FA2320895B008005800D290058432F
:4078C00013F0FEFB0400FA2040007043290013F0F7FB06000200A04200D22200029B019902339B005B5A9B059B0D9A4200D9C2E6039B08499A00049B44339B00FB181B892D
:407900009B059B0D5350024BD450BDE70023B5E688290020702900207829002080290020F7B5050008780C00FFF7B4FB0600482D02D0492D0CD0F7BDB723DB00E0584921E9
:4079400013F059FDB623DB00E05805F0EFFCF2E7002220000E49B727FFF7E6FBFF0000280CD14821E05913F046FDB623DB00E05805F0DCFC200073689847DCE7054B2A00FF
:40798000009321000123E05913F09AFCD3E7C0468813000021790000B62310B5DB000021C05805F07BFC10BDF0B5040085B000780D00FFF76FFB0700FFF787F9039020004A
:4079C000FFF7EAFFB623B726DB00E058F60005F0ADFC49224821A05913F021FD002D19D0EE235B00E35C002B14D0B623DB00E05805F056FC7D600B4DFA2348222100A05984
:407A0000009513F05DFC012349222100A059009513F056FC044BBB866B46187BFFF759F905B0F0BD2179000088130000037810B5002B04D1B623DB00C05805F031FC10BD14
:407A4000037810B5002B04D1B623DB00C05805F06DFC10BD70B5040000780D00FFF71AFB433003780126002B0FD1B623DB00E05801F02EFA0322837A0B361340022B04D03A
:407A800093420DD05A1E9341DE1C2078FFF7FAFA06712078FFF7F6FA01002000A84770BD2300D533FF339B7C0426012BEDD90C36EBE7F32370B55B00C35C04000D00042686
:407AC000012B00D90C362078FFF7DCFA06712078FFF7D8FA01002000A84770BDF8B50700D537FF377B7B04000E00002B13D00078FFF7D0FA553003780C25002B00D1093D10
:407B00002078FFF7BFFA05712078FFF7BBFA01002000B047F8BDB623DB00C05801F0D8F9837A0C259B069B0F022BE9D0032B03D05A1E9341DD1CE3E7BB7C0425012BDFD937
:407B40000C35DDE7014B19607047C04690290020F8B51F4B0D001A68FF24002A29D01388E63C8B4225D3D38CE6348B4221D8938A8B4220D20021F53C0B005800105ADEB26D
:407B8000A8421FD88E4219D0124905245B185B009F5A0521381A13F047FD664381B20F36F4B2002905D07D1BA8B213F03DFD2418E4B22000F8BD13240A21DDE705244C43A8
:407BC0001434F6E70133D8B28442D6D2FF24F0E790290020FFFFFF7FF8B50E0004000778FFF773F8124B0500DB199F5D06213800FFF73AFC142001F05FFFB623DB00002210
:407C0000E058012105F034F9060000213800FFF72BFC0A2001F050FFE8B2FFF75AF8054920007143090A89B2FFF792FFF8BDC046CCDD01008813000010B5022000F056FFDD
:407C4000041E04D001220020110000F03DFF200010BD0000F0B585B00193B623DB000600C0580D00039201F033F98388002B02D1002005B0F0BDB623DB00F058EC8801F0B6
:407C800027F98388A342F3D12B79A988DB06DB0E00932B68C9055C04B623DB00F0580F0F01F016F9F0228388BF4E52007380AB88BE491A4080231B0113433288640F0A4054
:407CC00013433380009B013CA400581EE4B2132800D967E113F09EFC1400340049005400660075008E00B800EA000201140166011A013B017F0066017F00660144014D01D5
:407D0000002C00D095E001F017F87060002800D03DE12F230334B36002381F21A24A13788B4300990B431370831C03D001340230E4B25060039B01201A60019B1C7098E728
:407D4000002C76D100F0FEFF08220100301D13F0AEF900F0F9FF0100300008220C3013F0A6F97461B46107346BE0042C61D12B7A532B5ED13000083001F018F80020CCE700
:407D8000042C56D12B7A522B53D1894B00201B68033C1B699847831CBFD102200023019A137066E7042C44D12B7A4A2B00D0F0E07F4B80481B681B699847831CEDD0033C1C
:407DC000ABE7042C35D12B7A502B0ED1FD2000F08DFE002802D0012403209EE701221100100000F071FE0124C8E7FFF725FF0028F9D1F0E77B1E02936B461B7A0A2B18D86A
:407E00000B2F14D0182C14D11820290078436A4B103880B222000831C01813F048F90122029B66499A400B8893430B80B5E7102CEAD018227378012493431A0010231343A7
