:1000000000400020590B0000FD010000FF0100002E
:1000100000000000000000000000000000000000E0
:10002000000000000000000000000000FD010000D2
:100030000000000000000000FD010000FD010000C4
:10004000FD010000FD010000FD010000FD010000B8
:10005000FD010000FD010000FD010000FD010000A8
:10006000FD010000FD010000FD010000FD01000098
:10007000FD010000FD010000FD010000FD01000088
:10008000FD010000FD010000FD010000FD01000078
:10009000FD010000FD010000000000000000000064
:1000A0000000000000000000000000000000000050
:1000B0000000000000000000000000000000000040
:1000C0000000000000000000000000000000000030
:1000D0000000000000000000000000000000000020
:1000E0009400001069770000C11180310000000009
:1000F0000000000000000000000000000000000000
:1001000010B5064C2378002B07D1054B002B02D0ED
:10011000044800E000BF0123237010BD000500204B
:100120000000000090220000044B10B5002B03D00B
:100130000349044800E000BF10BDC04600000000B5
:100140000405002090220000402292029A1A924652
:100150007047C046174B002B00D1134B9D46FFF74D
:10016000F3FF00218B460F461348144A121A01F080
:10017000F2FF0E4B002B00D098470D4B002B00D008
:1001800098470020002104000D000D48002802D0EF
:100190000C4800E000BF01F0B1FF2000290000F092
:1001A00047FD01F095FFC046000008000000000078
:1001B000190C00000040002000050020DC14002085
:1001C0000000000000000000BFF34F8F034B044A03
:1001D000DA60BFF34F8FC046FDE7C04600ED00E098
:1001E0000400FA05034B1A7801231A4201D1024A8E
:1001F000137070470907002058050020FEE7FEE74E
:1002000070B51D4B1D4CE15800292AD00C3BE15024
:100210004B0521D5E26D1A4DE36D52042B6000238E
:10022000520F93421EDB07240F222B68580A2040EE
:100230001A40012A02D11B0B23420DD0114A124B46
:100240001478002C02D01C78A04205D00124147030
:10025000402218700D4B1A608B0502D501220B4B02
:100260001A6070BD180018308000265801339800BD
:100270002E50DBB2D5E7C0460C05000000000A4056
:100280004C0A0020080700206C0A0020440A0020C5
:1002900030B5002915D001230F250B4C41185B42C6
:1002A0000278013053401A092B409B001B595A40D9
:1002B00013092A409200125953408842F0D1D84382
:1002C00030BD01235B42FAE73C22000070B5437960
:1002D00002791B0281791A43C379090411431B0671
:1002E00004000622194350D0427803788578120220
:1002F0001A432D042A438025C378AD021B061343FD
:1003000058180622A84240D21800FFF7C1FF220069
:1003100023005932117858331B78090219432300FE
:100320005A331A7801331B78120411431B06062234
:100330000B43834229D1617B207BA37B0902E47BB1
:1003400008431B04034324061C43AC421DD26378BC
:1003500020780F491B0203438B4216D12000E1791C
:10036000A279090211430C390C30FFF791FF617A31
:10037000237AA27A09021943E37A120411431B0675
:1003800000220B43834200D00632100070BDC046ED
:1003900046490000030010B50720012B09D107488A
:1003A000FFF794FF064B04221978002802D19143ED
:1003B000197010BD0A4306201A70FAE780FF010089
:1003C000380A00200B4B00209B681A0F11070A2ADD
:1003D0000AD0F0221206914207D1074A9B18132B2C
:1003E00005D8064A9B00985870470548FCE7054821
:1003F000FAE7C04600001040FFFFFF0F8421000015
:1004000023005000FF0052000020074B1A6B82426D
:1004100008DA064A98581C238000034004485843D1
:10042000044BC0187047C04600000340080F00008E
:1004300040420F0000366E01F8B501240322260069
:100440000B4B9D6A9F6AAD09996ABF08154017401A
:10045000AE40BC400023114202D1FFF7D5FF03009C
:100460006008C018F84076088019E840F8BDC0461A
:100470000000034010B5FFF7DFFF041E12D0013C5F
:100480000949200001F098FDFA21084B013018704D
:100490008900200001F090FD054B01301860054BEC
:1004A000C003186010BDC04640420F008404002005
:1004B000800400207C0400201C4BF7B58200D65835
:1004C000182343431A4AD318C22292009B8AB45875
:1004D0009BB2E405E40D221C082C00D90822182741
:1004E0004743134D1C00AC463D0092B20A70654470
:1004F000991889B20195A5B2A9420CD800248B4263
:1005000000D8141C18225043094A1B1915189BB215
:100510000120AB82FEBDD025AD007559AC466746C3
:10052000019DAD682F550134E5E7C0462C2200003F
:10053000D8090020764B8200F0B5D458002385B04E
:1005400002AAD371734A0500A6580222FF3216424E
:1005500000D083E00127F3063CD5182343436E4ABD
:10056000D31801931B79042B10D002ABD91DFFF7D0
:10057000A3FF0521019B38009A8A197192B21B6969
:100580009847FC23012207001B01E25018236B430C
:10059000614AD31802221A7100229A828123802292
:1005A0009B00E15852020A43E250E2585B490A407C
:1005B000E25001225A49635893436350F8231021B3
:1005C0001B01E250574AA3588B43A350F423302217
:1005D0001B01E250730600D473E018226A434E4BAD
:1005E0009B181A79022A40D1626ED20639D50421AD
:1005F0000022197110001B699847002835D0F82295
:1006000001231201A350464AA350F4233022454946
:100610001B01E2506058203A02436250424A515D49
:10062000012200294AD1E266E65001263F4BE758F5
:1006300037424CD10120F8231B01E7503C4BE658D0
:10064000F30704D502AB2800D91DFFF735FFFC23C3
:100650001B01E65000280DD005B0F0BD1E001F00A4
:10066000B8E705221A71002FCFD10223E366F423E5
:100670001B01E6501820236868435B005B08236079
:100680000223254D264A2D182B710023F821AB8219
:10069000A3500122102552422248090162502158DC
:1006A000A9432150F4210901625080316250E36670
:1006B000802322681B0613432360CDE71D494A555A
:1006C000B2E7F4231B01E650002FAED1D2E7182287
:1006D0006A43114B04219B1800221B6910009847A4
:1006E0000028A7D10E4AA358B343A350F8231B01F7
:1006F000E650812380229B00E15852020A43E250D7
:10070000E25806490A40E2500223E36693E7C046F6
:100710002C2200004C0F0000D8090020FFFFFEFF34
:10072000880F0000480F00008E0A00208C0F000088
:10073000CC0F0000920A002010B50320FFF7FAFE4C
:1007400010BD0000084B03219A6A100008400A42BD
:1007500006D01A6B002A04DA00209A6A8A439A6249
:1007600070470248FCE7C0460000034003004A000F
:100770000321064B1A6B8A43110002220A431021FF
:100780001A631A6B0A431A637047C0460000104090
:10079000F0B501240A688440244B002A43D15C64EC
:1007A0004A6803279446072216004743BE409D68C7
:1007B000B54366463240BA4015433207D20F8240F5
:1007C0009D609D698700A5432A430F25AC46BD4027
:1007D0006646174C9A6122684000AA4315000A7ABF
:1007E0003240BA402A43226003248440DA680C3E37
:1007F000A243CC682640864080241643DE600A6906
:1008000064041206986822400A4C204002439A6011
:100810004A6980215206890498680A4006490140C5
:100820000A439A60F0BD1C64BAE7C0460003044066
:1008300000030240FFFFFFFEFFFFFFFD044B1B68AC
:10084000DB0703D5034B10308000C1507047C04612
:1008500000001040000000208023F0B5C9B00090D7
:100860009B02984251D2802208A8520001F06AFCF3
:10087000274B06AE0693FF23264D7360264BAE60D2
:100880006B60C046FFF79EFD041E3BD101F0D9F915
:10089000224B234F029302AB01900397AB60214B95
:1008A0006B60C046FFF78EFD80221F4B1206041EB0
:1008B0001A6324D11D4BAB601D4B6B60C046FFF724
:1008C00081FD041E1BD11B4B009AAE603360336860
:1008D000100A00041843184B30606B60C046FFF7E5
:1008E00071FD164A04AB04920597AB60144B0400EB
:1008F0006B60C046FFF766FD002C00D10400019834
:1009000001F0A3F9200049B0F0BD0E4CFAE7C04653
:10091000B6D700000000104004000080B6E90000D7
:100920001C0500201600008000000340B6E800000F
:1009300015000080B6D8000005000080B6EA00006F
:10094000170000802100520010B5104A03001278F1
:100950000E20002A18D00E4A073812889A4213D85F
:100960000C4A12889A4203D20B4A12889A420BD13F
:10097000802207209200934206D21802FFF76CFFF4
:1009800040B2002800D0052010BDC0460907002055
:10099000880400208A0400208E040020F8B5444D0D
:1009A00069780C0902D000242000F8BD01284BD141
:1009B000022A20D83F4F404E3C603460012A10D0BC
:1009C00002290CD13D4B2A781B889A42EBD23C4934
:1009D000083352183A605B1801243360E4E70029B9
:1009E000E1D10022AA562B78002ADCDB354A9B187D
:1009F0003B60334BF0E7023A93B200291BD004006E
:100A000002290DD12D4A29782D4812880818521A2A
:100A10009A4200DD1A002C4992B201F093FB0124A6
:100A20002A4B1B78D9B2002BBED19022280052004D
:100A300001F091FBB8E7264A264912788854234AE8
:100A40001070254A1380EAE70028E9D119490B689C
:100A50001C1EE5D0184A040012689342E0D2D21A54
:100A600092B2002ADCD0101C082A00D90820C2B299
:100A700017481A4C007880000459822080002658BC
:100A80000820801B8126C0B2B600824208D2012015
:100A9000A05190209A188000934205D10B60BEE7C8
:100AA0000422A2510200F4E71E7801332650F3E736
:100AB000100700203808002034080020920400208D
:100AC000C40800203C080020120700203008002045
:100AD000320800208E0A0020D60900202C220000B7
:100AE00010B5034B1B68584301F0A2F810BDC04677
:100AF00080040020F7B5040001200F001D000192C2
:100B0000FFF7EEFF4021114E0F43335D29030F43E2
:100B10005B021F4300230E49CF609D420ED8802305
:100B20000C4A9B02116803200B431360FFF7D8FFA8
:100B30000722335D013313403355F7BD01989A0006
:100B400080581A1D920088500133E6E78D0A002074
:100B500000000A40C4000A401923244970B54A6DB8
:100B60001A40234B102A1BD000221A60214B8B63A2
:100B700072B6C0222049214801F0E4FA0123204A3C
:100B800011680B431360BFF34F8F1E4B1E48834207
:100B90001ED300201D4B1E498B4224D3FFF7DAFAE7
:100BA0001A68012AE2D100201A681A4A126806CA95
:100BB000186081F308889047FEE71C68910064582C
:100BC0005D6801326C5099688A42F6D30C33DEE7D7
:100BD0000022F8E71D689400605101325C68A2426F
:100BE000F8D30833D8E70022F8E7C04600000340F6
:100BF000780400206588EDAC0000000000000020B3
:100C0000000010409C220000A8220000A822000042
:100C1000B022000080FF01007047000010B5034BB8
:100C20001B78584301F004F810BDC046840400202E
:100C3000F0B589B0FFF79CFD8023F74D1B062B63B1
:100C40002B6B002B1FDAFFF7DFFBF44B98421AD017
:100C500000F0F7FF0022F24B0400EA50F148F24B9B
:100C6000F249C35CDBB26B50F1231B01EA50D32382
:100C70009B00C35CEE4ADBB23220AB5000F0D8FFE1
:100C8000200000F0E2FFFFF75DFD0C22E24EB36AA8
:100C90009343B362B36AB4329343B362FFF7EAFBA0
:100CA0003022B36A9343B3628023F26A1B06134374
:100CB000F362336B002B2FDAFFF7A6FBDD4B984274
:100CC0002AD000F0BEFF0022D54C0500DA4BD548F3
:100CD0003251C35CD549DBB27350F1231B01F25092
:100CE000D9239B00C35CD24ADBB2B350322000F060
:100CF0009FFF31003259072605230F00B2431343EB
:100D000032200B5100F094FF06233A592800B243D9
:100D100013433B5100F099FFFFF714FD0C22BE492D
:100D2000C1248B6AC54E93438B628B6AB432934362
:100D30008B62FFF71DFDFFF79DFBC021C04BC14A31
:100D400089001A605858C04A304010435850BF4874
:100D5000A40018601868BE48862718601859BF009C
:100D6000304002431A51BB4AC2201A601A68BA4A7C
:100D700080001A60A0221D58D20035402A43C325A6
:100D80001A50B64AAD001A601A68B54A09381A6096
:100D90005A59FF38324002435A51B24A9E251A60CE
:100DA0001A688022D2051A601E58AF4AED0116401B
:100DB00035431D508125AD48AD0018601868AC481A
:100DC00018605859104008435851AA480435186013
:100DD0001868A9481860585910405851A748043558
:100DE00018601868A6481860B8205E59400116407F
:100DF00030435851A348842618601868A248B600AA
:100E00001860BC209D598001154005439D519F4DA0
:100E100004361D601D689E4D1D609D59154005439B
:100E20009D519C4D1D601D689B4D1D608025DE59A8
:100E30006D0016403543DD51984D07271D601D6834
:100E4000974D1D608725AD005E59164030435851BF
:100E5000944804351860186893481860CC205E598F
:100E60008001164030435851904801261860186898
:100E70008F481860892080001D582A4011438D4AF0
:100E800019501A60092200201B688B4B8B491A618C
:100E9000043A5E629862DA62033A9A6392191A63BC
:100EA0009219DA633C321A643A3A5A643B329F64CC
:100EB000834DDA64FFF76CFC30008249FFF768FC71
:100EC0002B591B021B0A2B517F4B1B68334203D04B
:100ED00038007E49FFF7B2FC80232B60FFF7ACFAA5
:100EE0007B4F0100380000F0E1FEB722794ED200BE
:100EF000B7505722784900230A708021774A490069
:100F00001180774AD1393370118062B6754C7648BA
:100F10002370FFF7DBF9002801D004232370082396
:100F2000227872491343724A237013689BB28B4232
:100F300000D029E10023136022780133134323708A
:100F40006C4C37782368C1215B005B0823608023E9
:100F500009221B06C90023606358642093431A00CA
:100F6000012313436350FFF759FE9622624B520050
:100F70001A60624B624A1A60C022D200A3585B001A
:100F80005B08A3509032A3585B005B08A350182362
:100F9000A1580B435B49A35063585B4A1A40902306
:100FA0001B021343594A6350A35859495B0C5B0415
:100FB0000B43A350002F00D116E2DA213822C900DA
:100FC0006358012093431A0010231343635051497F
:100FD000514A63581A40514B13436350FFF780FD49
:100FE000C022D200A1584E4B0B43A35000224D4BC0
:100FF0001A604D4B4D4A1A6001234D4A11680B434C
:101000008E2113604B4B4C4AFF311A604B4A1368D8
:101010005B0A5B0294E0C0460000034000366E01AC
:10102000080F000000F0FF0F650300000C0F000028
:10103000180F0000006CDC027D030000FF0000FFC1
:10104000000001404000004000BF5D0040FF008004
:101050004100004041FF00804200004042FF00800C
:101060004300004043FF0080FF00FFFF00FF0080BF
:101070000100004001FF00800200004002FF0080EC
:101080000300004003FF00800400004004FF0080D4
:101090000500004005FF00800600004006FF0080BC
:1010A0000700004007FF00800800004008FF0080A4
:1010B0000900004009FF0080FC0001400022000000
:1010C00000E100E0D421000000001040191C0000E5
:1010D000DC100020980A0020D4090020920400208F
:1010E00090040020380A002080FF01004C420000DC
:1010F0007804002000000A40D0000A40D4000A40D2
:101100000A4041010C210000FF0FFCFF14210000E8
:101110005C500100082100001EFF79FF21008400BF
:101120000A003E00A8000A40BC000A400B41000033
:10113000C4000A40B4000A400F020000E4000A4064
:101140000B431360002F0CD18027E14BBF01DF67F9
:10115000BFF34F8FBFF36F8F0D20DE49FFF76EFB9C
:101160002F60A022DC4BD200A3500832A1580B43C1
:10117000A3507C22D949635893431A004023134358
:101180006350012303932FE0247804232000116887
:1011900018401C4200D0D3E6D14C89B2D14BA142B9
:1011A0000BD1188019888BB2002912D1012313604A
:1011B0001923CD4A5365FFF707F8CC49CC4C098970
:1011C000A142EED0CB488142ECD0FA2189001980AF
:1011D000E8E70024C84A21001470C84A3800009289
:1011E000C02200F0BDFD0394C54B03221E60012602
:1011F000C44B00211E70C44BC4481A70C44BC54A6E
:101200001A609022520000F0A6FF9123C24CC34AFC
:101210009B00D75820008022002100F09CFFC04B8B
:1012200020221B886780A38023003A331A7024236E
:10123000FF33E363BB4B2C341A782670BA4B002A79
:1012400000D01A7000211B78B84A0493B84B812053
:101250001960C1241A668022A40052028000D96657
:101260001A501A51B34AF4269950012236015242BB
:101270009A51B14E049F9951083E9A51AF4E9951DF
:10128000083E9A517A00FE273F043A43C427BF0024
:101290001E68DA510822113FFF32FF3FDA51013751
:1012A000FF37DA518022120632431A60A44A01261F
:1012B000170048373E704B27BC4694446046493F70
:1012C00007704C20844694446046077017005C37D2
:1012D00039808E499027116511007F0054310F80AD
:1012E000984904989165110049310870FE214A32ED
:1012F00081201170042280001A501A511A59924903
:101300000A401A511A580A401A5042228949FF329B
:101310005A508A4AFA388D499E50FF38FFF78EFAA4
:1013200080231B012B60774B1B78002B09D0802179
:10133000754B874A1B7849049B009A5893680B4366
:1013400093600023902206AE06937360814B724C2B
:101350001B78227063705B074FD580253100AD008C
:10136000E0237D4A81CB81C21000082200F0EAFE12
:101370002300203306CE06C380239B00638525858A
:1013800000F05FFC230080227E331A80FF23184088
:1013900000F05BFC01222F21A3791343A3716F4B53
:1013A0002F321A806E4B6F4A059313806E4A13805A
:1013B0006E4A11806E4F3B78002B46D0534D6D4ED8
:1013C0006B781B0932D16C4B28781B880638DBB24E
:1013D000062800D926E100F0E5FD170025014100AF
:1013E00025016100E400ED000F226449CB6F9343B7
:1013F0001A000B231343CB67DFE53C4B1D68290024
:101400002D0AE031ADB2ABE70122AB7813420DD02B
:1014100000F017FC0121404B9A798A439A7100220F
:101420007E331A80FF23184000F00FFC0022364B59
:1014300053491B783A70CA54F15C914205D0F2547A
:10144000504A9B009B580122DA662B4B1B78002BDD
:1014500000D1E9E001224C4B1A60A9E6012B00D82B
:10146000E0E0AB780524522B1FD1EA78012A1CD189
:101470000021254B42481B78C154F05C884204D0BF
:10148000F15440499B005B58DA660520FFF7C6FB24
:1014900072B600223C4B1A60FEF796FEAA783B4BD0
:1014A000502A75D102244F3A1A7000F0CAFB1A4D27
:1014B00000222B007E331C702B007F331A70FF2319
:1014C000184000F0C2FB0122AB791343AB71ADE7CA
:1014D00004E100E00102000003060100940700009F
:1014E00031420000860400200000034080FF01001C
:1014F00046490000FFFF000058050020E5010000FC
:101500000C070020310800203208002010070020BE
:1015100038080020BA0800203C08002000F0FF0F27
:1015200090040020D4090020940400208828004062
:1015300000000840480F0000880F0000C80F00009E
:10154000D80900209D090000FFFFFEFF39070000B9
:101550007C220000380A00204C080020880400206B
:10156000FF0100008A0400208E0400208C0400206B
:1015700030080020920A0020D609002004FF0A400B
:101580008E0A00202C220000780400200907002089
:1015900001211A7805240A4287D00022033C1A70E0
:1015A00083E7A878FEF7F6FE0230C4B2002C00D123
:1015B0003CE77AE70524032B00D876E7AB78462B87
:1015C00000D072E7EB780220012B07D168792B79E4
:1015D0000002C1491843FFF7B7F9033CEB78002B31
:1015E0001BD1BE4B07241B78002B00D15DE7BC4B01
:1015F00069792A791B88090211438B4200D354E789
:1016000080239B00994200D34FE78022B248090211
:10161000520000F02EFB043C47E7002800D144E7CD
:10162000072442E7052440E7039B002B00D1C1E6D5
:10163000AC4B1C78AC4B1B5DD9B2002B6BD1AB4BC8
:10164000AB4E1D5D06AF002D27D0AD239B00F65895
:1016500080223700D200A74BA74D1740A0001642AA
:1016600074D129586200511889005E5801365E50C5
:101670002958521892009958A04A91424BD9E40037
:101680001F511C19676046E0802372585B001343AA
:101690000CE0D150012D3ED001250023C0213B702C
:1016A000C9009D42F0D17358954A134073500A20E7
:1016B000FFF7B4FAAD2301229B00F3589B0A1340B5
:1016C0003B70387863005B198A4AC1B29B000028DE
:1016D000DFD0D1580131D150D158884B9942D9D956
:1016E000854BA100CD500023E100535052185360A8
:1016F000844A04211355844AAD001355834A135577
:1017000001227A4B1A55C023DB00F2588A43F2506B
:10171000F2581543F550734B1E78734B9B5DDCB24A
:10172000002B00D046E67A4DB7007B59012B13D130
:1017300000F087FAFF237C51184000F086FA714BC5
:101740009C55714B9C55714B9C5533E62A5864004F
:10175000A418A4001951DEE77B59402B00D029E6DC
:1017600000F06FFAFF237C51184000F06EFA694ACE
:1017700013685C04640F00D11CE60F210B40012BA1
:1017800009D18023644A5B05136001230D393000C1
:10179000FFF7B0F90EE60F2B00D00BE653797F2B45
:1017A00026D91079C006C00E0138032800D901E6F9
:1017B000594A00F0EDFB020D1319584B1360584BBA
:1017C000536000239360574BD36004230F21DEE75F
:1017D000554B1360554B53600223F7E7544B13608E
:1017E00001235360DB18F1E7524B13600123EDE74F
:1017F000D188514B994200D0AAE111799788C90646
:10180000FF054E4DC90E4E4A3F0F049179012868DD
:101810000A434C49013C01400A432A60049AA4004F
:10182000501EE4B2122800D992E100F0BBFB130075
:101830001D00370095009101E200F700160131010B
:1018400049016D0175017C019101910191019101A5
:1018500091018B01002C00D0F6E02F236C60AB606F
:1018600003340220404227E0002C00D0ECE0E021CD
:101870000822281D00F0FDF9334B34491B785B0723
:1018800002D4334B1968E031280008220C3000F0F4
:10189000F0F900236B61AB610724E2E7042C00D070
:1018A000D2E01C4B1B7A532B00D0CDE0294AF233F7
:1018B000FF33D358AB6000201F222B789343049A48
:1018C00013432B70831C03D001340230E4B26860F0
:1018D00023002A007AE7C046C40800200907002038
:1018E0008C040020980A00208C0A0020480A00205E
:1018F00000000A405C05002054050020C4090000D7
:10190000FFFEFFFF6C0A00208D0A00200807002060
:10191000440A00204C0A002034050020418000FFCA
:10192000B40400920000A0F6428000FF0000B4045E
:101930004380B4044480B404B4040000700A00205E
:101940000008B4041FE60000380A0020390A00200D
:1019500080FF010000F0FF0F042C75D1844B1B7A2F
:10196000522B71D172B6834B834D1A68834E1A6025
:10197000834B84491F688023AA59DB0013438248A4
:10198000AB514B6E814A0078002F24D10F37BB43F7
:10199000034302204B66AB59A343AB51AB590343FE
:1019A000AB518C239B00E9581143E950E95801439E
:1019B000E950E9588143E95090239B00E95864209D
:1019C0000A43EA50FFF72AF98023AA591B0213435E
:1019D000AB51FEF7F9FB0F270130BB430343022055
:1019E0004B66AB598343AB51AB591C43AC518E236F
:1019F000D8E7042C28D15E4B654A1B7A502B09D1BD
:101A00000221137803208B43033C002B00D053E7C3
:101A1000117050E70020107001244DE77B1E0A2B47
:101A200012D80B2F0ED0182C0ED11820784318384E
:101A3000584F4F4980B208302200C019083100F0D9
:101A400018F9B7E4102CF0D018226B7801249343D6
:101A50001A00102313436B7003E74F4B1B78DBB264
:101A6000042CF1D1002BEFD1414B1A7A462AEBD14D
:101A70009F7A5A7A3F02174338004849FEF764FFBD
:101A8000059B9F42C8D1464A13781C431470C3E794
:101A90007B1E0A2BD8D8182239005143C9B20B2F0C
:101AA00000D1083A3B4B1039C9B2C918281D00F0C3
:101AB000E0F8002CC8D105340B2F00D1D1E6EBE6BD
:101AC000042CC1D12A4B1A7A462ABDD1304A0E20A5
:101AD0001278033C002A00D1EEE65A7A997A314B0B
:101AE00009021B88114307388B4200D3E4E68023A8
:101AF0009B00994200D3DFE6802228480902520069
:101B000000F0B7F82000D7E6042C9DD1184B033C19
:101B1000187AFEF73FFCCFE6214B002C94D11B78BE
:101B200002342B719DE6082C8ED1114B9868D96830
:101B3000802342189B029A4286D200F089F8063C24
:101B400028718EE6002C00D07EE7EC236C60E6E77F
:101B5000074A51680A0C9A4200D02BE4124A0B0A39
:101B60001160E721194010230B4353703EE6C04635
:101B70004C0A00207804002000000A406808000099
:101B80005405002000FF0A403CF1FF0F200C20000C
:101B900009070020000600200A0700200806002090
:101BA000380A00208C040020340500200222044B57
:101BB00019680A431A60012219680A431A607047BB
:101BC00010E000E00221044B1A688A431A601A6888
:101BD00001398A431A60704710E000E00421044A8A
:101BE0008000136808408B43184310607047C0465C
:101BF00010E000E0034A80B2136C1B0C1B0403438B
:101C000013647047000003400122024B5A645B6C6E
:101C10007047C0460000034010B5FFF7F5FF0248CB
:101C200000F030F910BDC046DC10002000000000BC
:101C30000230800803D00138FDD1C046C046C046FE
:101C40007047EFF3108072B6704780F310887047CA
:101C5000031E08D0081E06D0180059180023884219
:101C600002D15842C0B27047027801309B18DBB2F3
:101C7000F5E7002310B5934200D110BDCC5CC454ED
:101C80000133F8E770B5084B04001B6C02899BB266
:101C90000D009A4202D06420FEF7C0FF2800FFF733
:101CA000A9FF258170BDC04600000340F7B50023A1
:101CB0000500FF2001331A01AA18D0803F2BF9D16B
:101CC000FF2300279B00EF54214B224CEF540123AC
:101CD0002960E26C204E9A43E264204AA263E26CDF
:101CE0001343E3648023E26A1B061343E362FFF7B6
:101CF0008BFFFFF767FFFA21B7602868890000F0C3
:101D00005BF901380002000A7060E26B92B2E36B8B
:101D10009BB29A42FBD0E76B0120BBB20193FFF765
:101D20005DFFFFF743FF0222336893438022336055
:101D3000520233681342FCD0E36B01999BB2994283
:101D400000D91343DF1B6F81FFF73CFFF7BDC0468F
:101D5000FD0300000000034010E000E06588EDACEA
:101D6000F0B585B0040016001D0000270391FF2A7E
:101D700066D0BB4264D003000C330193FFF761FFD0
:101D8000FB239B00E118FF223E2302904889DBB22F
:101D9000FF2800D11A004889B04246D1FF218900AE
:101DA000625C013AD2B262543249625C013AD2B208
:101DB00062541A00019B12019A180A9B1581536004
:101DC000039B5681D36063892A4E5D432A4B15607D
:101DD000E35C002B1DD1294DEB6BA05D99B200286F
:101DE00035D0A5880B00A8B28D422CD211681B1AE1
:101DF0009BB25B1813601168E388994209D213689B
:101E000020009BB2E380A188E388C91889B2FFF75C
:101E100039FFFF229200A35C01270133DBB2A354F8
:101E2000A35D0133DBB2A35507E0013B5BB2103980
:101E3000581CABD10027FF2ABCD10298FFF705FF41
:101E4000380005B0F0BD802149025B18CEE7A180C3
:101E500013680B4A934200D913009BB25918E380D0
:101E6000200089B2FFF70EFF0123EA6C1343EB64F5
:101E7000CFE7C046FD030000FE0300000000034062
:101E8000C0FF00000122F0B504003D4B85B0C254F4
:101E900003933C4FFB6BA08899B21B0482B21B0CCE
:101EA000884263D226009B1A9BB20193FF230C3613
:101EB00035009B00E318A18002936B8998B2FF2B39
:101EC0001ED0019B2A6805339A4253D92B68019A88
:101ED0009B1A2B602B68002B12D1FF22FF336B81E2
:101EE0009200A35C013BDBB2A354274AA35C013BF5
:101EF000DBB2A3546B68002B02D06B68E96898478B
:101F0000029B10359D42D8D11F4D2049635D002BA7
:101F100017D07389FF2B03D033688B4200D231680E
:101F2000029B10369E42F4D1A088FB6B82B29EB217
:101F30001B041B0CB0421FD29B1A9BB205338B4271
:101F4000A7D889B2E180A3882000C91889B2FFF719
:101F500099FE0023039AA354635D002B04D1012250
:101F60000849CB6C9343CB6405B0F0BD80204002A0
:101F70001B1897E70023ACE7802040021B18DBE723
:101F8000FE03000000000340FD030000C0FF00004E
:101F900002B4714649084900095C49008E4402BCFC
:101FA0007047C04603B47146490840004900095AC9
:101FB00049008E4403BC7047002243088B4274D30F
:101FC00003098B425FD3030A8B4244D3030B8B423A
:101FD00028D3030C8B420DD3FF22090212BA030C43
:101FE0008B4202D31212090265D0030B8B4219D324
:101FF00000E0090AC30B8B4201D3CB03C01A524144
:10200000830B8B4201D38B03C01A5241430B8B428B
:1020100001D34B03C01A5241030B8B4201D30B0374
:10202000C01A5241C30A8B4201D3CB02C01A52419B
:10203000830A8B4201D38B02C01A5241430A8B425E
:1020400001D34B02C01A5241030A8B4201D30B0247
:10205000C01A5241CDD2C3098B4201D3CB01C01A61
:10206000524183098B4201D38B01C01A524143096B
:102070008B4201D34B01C01A524103098B4201D359
:102080000B01C01A5241C3088B4201D3CB00C01AC6
:10209000524183088B4201D38B00C01A524143083E
:1020A0008B4201D34B00C01A5241411A00D2014663
:1020B000524110467047FFE701B5002000F006F8D6
:1020C00002BDC0460029F7D076E770477047C0468A
:1020D000084B10B50400002B02D0002100E000BF27
:1020E000054B1868836A002B00D09847200000F049
:1020F0003BF8C046000000008C22000070B50026AE
:102100000C4D0D4C641BA410A64209D1002600F012
:102110002DF80A4D0A4C641BA410A64205D170BDCF
:10212000B300EB5898470136EEE7B300EB589847F9
:102130000136F2E7F8040020F8040020F80400203B
:10214000FC040020002310B59A4200D110BDCC5CE5
:10215000C4540133F8E703008218934200D170475A
:1021600019700133F9E70000FEE7C046F8B5C04634
:10217000F8BC08BC9E467047F8B5C046F8BC08BC21
:102180009E46704701005200FF00520004005200BA
:102190000400520005005200FF0052000000000041
:1021A0000800500009005000FF005200FF005200DC
:1021B000FF005200FF005200FF005200FF005200DB
:1021C000FF00520021005200FF0052002100520087
:1021D0002100520001000000040000000F00000078
:1021E00000000000000000000000000000000000EF
:1021F00000000000000000000000000000000000DF
:1022000001000000040000000F00000000000000BA
:1022100000000000000000000000000000000000BE
:102220000000000000000000000000000000054069
:1022300000000640000007400000084000000000C9
:102240006FC75E10DE8EBD20B149E330BC1D7B41FF
:10225000D3DA25516293C6610D549871783BF682AA
:1022600017FCA892A6B54BA2C97215B2C4268DC39D
:10227000ABE1D3D31AA830E3756F6EF300020440CC
:1022800000010440000004400003044098040020C2
:04229000000000004A
:08229400B4DEFF7F0100000031
:0C229C00B02200007C04002021000000A3
:0822A80000050020F70300000F
:1022B0000000E02EC05D00001800320000020002A5
:1022C00000020002130000010800000000000000EE
:1022D00000000000000000000000000000000000FE
:1022E00000000000000000000000000000000000EE
:1022F00000000000000000000000000000000000DE
:1023000000000000000000000000000000000000CD
:1023100000000000000000000000000000000000BD
:102320000000000000000000000000002901000083
:0423300001010000A7
:0200000490402A
:10000000FFFFFFFFFFFF00000000000000000000F6
:1000100000000000000000000000000000000000E0
:1000200000000000000000000000000000000000D0
:1000300000000000000000000000000000000000C0
:0400000300000B5995
:00000001FF
